:020000040800F2
:1000000000500020995D0008A55C0008B15C000864
:10001000B75C0008BD5C0008C35C0008000000007D
:10002000000000000000000000000000C95C0008A3
:10003000D55C000800000000E15C0008ED5C0008F1
:10004000E15D0008E15D0008E15D0008E15D000898
:10005000E15D0008E15D0008F95C0008E15D000871
:10006000E15D0008E15D0008E15D0008E15D000878
:10007000E15D0008E15D0008E15D0008E15D000868
:10008000E15D0008E15D0008E15D0008E15D000858
:10009000E15D0008E15D0008E15D0008E15D000848
:1000A000E15D0008E15D0008E15D0008E15D000838
:1000B000E15D0008E15D0008E15D0008095D000800
:1000C000E15D0008E15D0008E15D0008E15D000818
:1000D000E15D00081D5D0008E15D0008E15D0008CC
:1000E000E15D0008E15D0008E15D0008000000003E
:1000F0000000000000000000000000000000000000
:0C01000000000000000000005FF808F1A3
:1001100010B5054C237833B9044B13B10448AFF341
:1001200000800123237010BDDC01002000000000CE
:100130008C78000808B5034B1BB103490348AFF3A3
:10014000008008BD00000000E00100208C7800085D
:10015000034613F8012B002AFBD1181A0138704707
:1001600081F0004102E000BF83F0004330B54FEA68
:1001700041044FEA430594EA050F08BF90EA020FD5
:100180001FBF54EA000C55EA020C7FEA645C7FEA68
:10019000655C00F0E2804FEA5454D4EB5555B8BF8B
:1001A0006D420CDD2C4480EA020281EA030382EAFC
:1001B000000083EA010180EA020281EA0303362D8E
:1001C00088BF30BD11F0004F4FEA01314FF4801C61
:1001D0004CEA113102D0404261EB410113F0004F73
:1001E0004FEA03334CEA133302D0524263EB43032A
:1001F00094EA050F00F0A780A4F10104D5F1200EC8
:100200000DDB02FA0EFC22FA05F2801841F1000122
:1002100003FA0EF2801843FA05F359410EE0A5F1F6
:1002200020050EF1200E012A03FA0EFC28BF4CF027
:10023000020C43FA05F3C01851EBE37101F00045DD
:1002400007D54FF0000EDCF1000C7EEB00006EEBEA
:100250000101B1F5801F1BD3B1F5001F0CD3490874
:100260005FEA30004FEA3C0C04F101044FEA4452CB
:1002700012F5800F80F09A80BCF1004F08BF5FEA52
:10028000500C50F1000041EB045141EA050130BD32
:100290005FEA4C0C404141EB010111F4801FA4F1D5
:1002A0000104E9D191F0000F04BF01460020B1FA2A
:1002B00081F308BF2033A3F10B03B3F120020CDA62
:1002C0000C3208DD02F1140CC2F10C0201FA0CF040
:1002D00021FA02F10CE002F11402D8BFC2F1200CA5
:1002E00001FA02F120FA0CFCDCBF41EA0C0190405B
:1002F000E41AA2BF01EB0451294330BD6FEA0404A4
:100300001F3C1CDA0C340EDC04F11404C4F120028E
:1003100020FA04F001FA02F340EA030021FA04F3A0
:1003200045EA030130BDC4F10C04C4F1200220FAF7
:1003300002F001FA04F340EA0300294630BD21FA35
:1003400004F0294630BD94F0000F83F4801306BFFB
:1003500081F480110134013D4EE77FEA645C18BFEF
:100360007FEA655C29D094EA050F08BF90EA020F86
:1003700005D054EA000C04BF1946104630BD91EA7E
:10038000030F1EBF0021002030BD5FEA545C05D181
:100390004000494128BF41F0004130BD14F58004C0
:1003A0003CBF01F5801130BD01F0004545F0FE4134
:1003B00041F470014FF0000030BD7FEA645C1ABF69
:1003C000194610467FEA655C1CBF0B46024650EAA0
:1003D000013406BF52EA033591EA030F41F40021CC
:1003E00030BD00BF90F0000F04BF0021704730B552
:1003F0004FF4806404F132044FF000054FF0000127
:1004000050E700BF90F0000F04BF0021704730B5E7
:100410004FF4806404F1320410F0004548BF4042BC
:100420004FF000013EE700BF42004FEAE2014FEA11
:1004300031014FEA02701FBF12F07F4393F07F4FEC
:1004400081F06051704732F07F4208BF704793F0EF
:100450007F4F04BF41F40021704730B54FF4607402
:1004600001F0004521F000411CE700BF50EA010205
:1004700008BF704730B54FF000050AE050EA0102AE
:1004800008BF704730B511F0004502D5404261EB1E
:1004900041014FF4806404F132045FEA915C3FF45F
:1004A000D8AE4FF003025FEADC0C18BF03325FEAFC
:1004B000DC0C18BF033202EBDC02C2F1200300FAAD
:1004C00003FC20FA02F001FA03FE40EA0E0021FAD2
:1004D00002F11444BDE600BF70B54FF0FF0C4CF4C0
:1004E000E06C1CEA11541DBF1CEA135594EA0C0F72
:1004F00095EA0C0F00F0DEF82C4481EA030621EAAD
:100500004C5123EA4C5350EA013518BF52EA0335E7
:1005100041F4801143F4801338D0A0FB02CE4FF099
:100520000005E1FB02E506F00042E0FB03E54FF0C9
:100530000006E1FB03569CF0000F18BF4EF0010EC1
:10054000A4F1FF04B6F5007F64F5407404D25FEABD
:100550004E0E6D4146EB060642EAC62141EA555170
:100560004FEAC52040EA5E504FEACE2EB4F1FD0CB2
:1005700088BFBCF5E06F1ED8BEF1004F08BF5FEA30
:10058000500E50F1000041EB045170BD06F00046E2
:1005900046EA010140EA020081EA0301B4EB5C048F
:1005A000C2BFD4EB0C0541EA045170BD41F4801187
:1005B0004FF0000E013C00F3AB8014F1360FDEBFAC
:1005C000002001F0004170BDC4F10004203C35DA88
:1005D0000C341BDC04F11404C4F1200500FA05F30B
:1005E00020FA04F001FA05F240EA020001F00042AC
:1005F00021F0004110EBD37021FA04F642EB060122
:100600005EEA430E08BF20EAD37070BDC4F10C044B
:10061000C4F1200500FA04F320FA05F001FA04F20F
:1006200040EA020001F0004110EBD37041F10001FB
:100630005EEA430E08BF20EAD37070BDC4F1200506
:1006400000FA05F24EEA020E20FA04F301FA05F26E
:1006500043EA020321FA04F001F0004121FA04F216
:1006600020EA020000EBD3705EEA430E08BF20EAE6
:10067000D37070BD94F0000F0FD101F00046400020
:1006800041EB010111F4801F08BF013CF7D041EAA2
:10069000060195F0000F18BF704703F000465200A6
:1006A00043EB030313F4801F08BF013DF7D043EA77
:1006B0000603704794EA0C0F0CEA135518BF95EA2D
:1006C0000C0F0CD050EA410618BF52EA4306D1D1B4
:1006D00081EA030101F000414FF0000070BD50EAD3
:1006E000410606BF1046194652EA430619D094EA5D
:1006F0000C0F02D150EA013613D195EA0C0F05D147
:1007000052EA03361CBF104619460AD181EA03019A
:1007100001F0004141F0FE4141F470014FF0000052
:1007200070BD41F0FE4141F4780170BD70B54FF0ED
:10073000FF0C4CF4E06C1CEA11541DBF1CEA13556D
:1007400094EA0C0F95EA0C0F00F0A7F8A4EB05044F
:1007500081EA030E52EA03354FEA013100F0888046
:100760004FEA03334FF0805545EA131343EA12630F
:100770004FEA022245EA111545EA10654FEA0026C4
:100780000EF000419D4208BF964244F1FD0404F57D
:10079000407402D25B084FEA3202B61A65EB0305D9
:1007A0005B084FEA32024FF480104FF4002CB6EB96
:1007B000020E75EB030E22BFB61A754640EA0C0016
:1007C0005B084FEA3202B6EB020E75EB030E22BF56
:1007D000B61A754640EA5C005B084FEA3202B6EB97
:1007E000020E75EB030E22BFB61A754640EA9C0056
:1007F0005B084FEA3202B6EB020E75EB030E22BF26
:10080000B61A754640EADC0055EA060E18D04FEAE3
:10081000051545EA16754FEA06164FEAC30343EA83
:1008200052734FEAC2025FEA1C1CC0D111F4801F50
:100830000BD141EA00014FF000004FF0004CB6E749
:1008400011F4801F04BF01430020B4F1FD0C88BFE8
:10085000BCF5E06F3FF6AFAEB5EB030C04BFB6EBF3
:10086000020C5FEA500C50F1000041EB045170BDE6
:100870000EF0004E4EEA113114EB5C04C2BFD4EB13
:100880000C0541EA045170BD41F480114FF0000E97
:10089000013C90E645EA060E8DE60CEA135594EA13
:1008A0000C0F08BF95EA0C0F3FF43BAF94EA0C0F16
:1008B0000AD150EA01347FF434AF95EA0C0F7FF48B
:1008C00025AF104619462CE795EA0C0F06D152EADF
:1008D00003353FF4FDAE1046194622E750EA4106C3
:1008E00018BF52EA43067FF4C5AE50EA41047FF4D4
:1008F0000DAF52EA43057FF4EBAE12E74FF0FF3C39
:1009000006E000BF4FF0010C02E000BF4FF0010C09
:100910004DF804CD4FEA410C7FEA6C5C4FEA430C82
:1009200018BF7FEA6C5C1BD001B050EA410C0CBFD1
:1009300052EA430C91EA030F02BF90EA020F002033
:10094000704710F1000F91EA030F58BF994208BF9A
:1009500090422CBFD8176FEAE37040F00100704757
:100960004FEA410C7FEA6C5C02D150EA013C07D1AE
:100970004FEA430C7FEA6C5CD6D152EA033CD3D0F9
:100980005DF8040B704700BF8446104662468C46F3
:100990001946634600E000BF01B5FFF7B7FF002826
:1009A00048BF10F1000F01BD4DF808EDFFF7F4FF4F
:1009B0000CBF012000205DF808FB00BF4DF808EDDA
:1009C000FFF7EAFF34BF012000205DF808FB00BFFD
:1009D0004DF808EDFFF7E0FF94BF012000205DF81F
:1009E00008FB00BF4DF808EDFFF7CEFF94BF0120D4
:1009F00000205DF808FB00BF4DF808EDFFF7C4FFCD
:100A000034BF012000205DF808FB00BF4FEA410C15
:100A10007FEA6C5C02D150EA013C0AD14FEA430CF8
:100A20007FEA6C5C02D152EA033C02D14FF0000035
:100A300070474FF0010070474FEA410212F5001273
:100A400015D211D56FF47873B3EB625212D94FEA15
:100A5000C12343F0004343EA505311F0004F23FAFF
:100A600002F018BF404270474FF00000704750EA54
:100A7000013005D111F0004008BF6FF00040704711
:100A80004FF00000704700BF80B500AF084B1B68F7
:100A9000074A43F010031360032000F01FF9002001
:100AA00000F008F804F0CAFF0023184680BD00BF1C
:100AB0000020024080B582B000AF7860124B1A6807
:100AC000124B1B7819464FF47A73B3FBF1F3B2FB68
:100AD000F3F3184600F037F90346002B01D0012349
:100AE0000EE07B680F2B0AD8002279684FF0FF30A8
:100AF00000F0FFF8064A7B681360002300E0012342
:100B000018460837BD4680BD0800002004000020BC
:100B10000000002080B400AF054B1B781A46054B3F
:100B20001B681344034A136000BFBD4680BC704776
:100B3000040000200802002080B400AF024B1B68B4
:100B40001846BD4680BC70470802002080B485B0BE
:100B500000AF78607B6803F00703FB600C4BDB6839
:100B6000BB60BA684FF6FF031340BB60FB681A0214
:100B7000BB68134343F0BF6343F40033BB60044AD4
:100B8000BB68D36000BF1437BD4680BC704700BF50
:100B900000ED00E080B400AF044BDB681B0A03F0FB
:100BA00007031846BD4680BC704700BF00ED00E05B
:100BB00080B483B000AF0346FB71FB7903F01F02E2
:100BC000064997F907305B09012000FA02F241F863
:100BD000232000BF0C37BD4680BC704700E100E019
:100BE00080B483B000AF03463960FB7197F90730DA
:100BF000002B0BDA3B68DAB20C49FB7903F00F03E8
:100C0000043B1201D2B20B441A7609E03B68DAB217
:100C1000074997F907301201D2B20B4483F8002339
:100C200000BF0C37BD4680BC704700BF00ED00E040
:100C300000E100E080B489B000AFF860B9607A608C
:100C4000FB6803F00703FB61FB69C3F10703042B97
:100C500028BF0423BB61FB690433062B02D9FB695F
:100C6000033B00E000237B614FF0FF32BB6902FAD7
:100C700003F3DA43BB681A407B699A404FF0FF31B7
:100C80007B6901FA03F3D9437B680B401343184691
:100C90002437BD4680BC704780B582B000AF786015
:100CA0007B68013BB3F1807F01D301230FE00A4A47
:100CB0007B68013B53600F214FF0FF30FFF790FF3F
:100CC000054B00229A60044B07221A600023184645
:100CD0000837BD4680BD00BF10E000E080B582B09F
:100CE00000AF78607868FFF731FF00BF0837BD4676
:100CF00080BD80B586B000AF0346B9607A60FB73F3
:100D000000237B61FFF746FF78617A68B9687869EC
:100D1000FFF790FF024697F90F3011461846FFF78C
:100D20005FFF00BF1837BD4680BD80B582B000AF01
:100D30000346FB7197F907301846FFF739FF00BFEC
:100D40000837BD4680BD80B582B000AF7860786856
:100D5000FFF7A2FF034618460837BD4680BD0000D6
:100D600080B584B000AF78600023FB737B6893F894
:100D70002130022B05D07B6804229A630123FB7388
:100D800051E07B681B681A687B681B6822F00E02C2
:100D90001A607B681B681A687B681B6822F0010276
:100DA0001A607B681B68224A934229D07B681B68C3
:100DB000204A934222D07B681B681F4A93421AD074
:100DC0007B681B681D4A934212D07B681B681C4AD3
:100DD00093420AD07B681B681A4A934202D14FF4AF
:100DE00080130EE04FF080730BE04FF4803308E087
:100DF0004FF4805305E04FF4807302E0102300E0CD
:100E00000123114A53607B68012283F821207B680B
:100E1000002283F820207B685B6B002B03D07B686B
:100E20005B6B78689847FB7B18461037BD4680BDE2
:100E3000080002401C000240300002404400024012
:100E4000580002406C0002400000024080B48BB0A9
:100E500000AF786039600023FB610023BB61002391
:100E60007B6100233B6200233B6100237B6227E11F
:100E700001227B6A02FA03F3FB613B681B68FA6993
:100E80001340BB61BA69FB699A4240F016813B6826
:100E90005B68122B34D0122B0DD8022B2BD0022BD7
:100EA00004D8002B31D0012B1CD048E0032B43D0B9
:100EB000112B1BD043E0874A934226D0854A9342A8
:100EC00006D8854A934220D0844A93421DD036E00A
:100ED000834A934219D0834A934216D0824A93425E
:100EE00013D02CE03B68DB683B6228E03B68DB68A2
:100EF00004333B6223E03B68DB6808333B621EE05F
:100F00003B68DB680C333B6219E03B689B68002B55
:100F100002D104233B6212E03B689B68012B05D1A0
:100F200008233B627B68FA691A6108E008233B6288
:100F30007B68FA695A6102E000233B6200BFBB692B
:100F4000FF2B01D87B6801E07B680433FB60BB6941
:100F5000FF2B02D87B6A9B0002E07B6A083B9B0068
:100F60003B61FB681A680F213B6901FA03F3DB431D
:100F70001A40396A3B6901FA03F31A43FB681A60A5
:100F80003B685B6803F08053002B00F09680574B62
:100F90009B69564A43F001039361544B9B6903F0EC
:100FA0000103BB60BB68524A7B6A9B08023352F85C
:100FB00023307B617B6A03F003039B000F2202FA5C
:100FC00003F3DB437A6913407B617B68494A9342B0
:100FD00013D07B68484A93420DD07B68474A9342BE
:100FE00007D07B68464A934201D1032306E00423DD
:100FF00004E0022302E0012300E000237A6A02F009
:101000000302920093407A6913437B6138497B6AFB
:101010009B0802337A6941F823203B685B6803F43C
:101020008033002B06D0374B1A683649BB6913430F
:101030000B6006E0334B1A68BB69DB433149134050
:101040000B603B685B6803F40033002B06D02D4B2C
:101050005A682C49BB6913434B6006E0294B5A6818
:10106000BB69DB43274913404B603B685B6803F473
:101070008013002B06D0234B9A682249BB69134387
:101080008B6006E01F4B9A68BB69DB431D49134028
:101090008B603B685B6803F40013002B06D0194B90
:1010A000DA681849BB691343CB6006E0154BDA6870
:1010B000BB69DB4313491340CB607B6A01337B621E
:1010C0007B6A0F2B7FF6D4AE00BF2C37BD4680BCA9
:1010D000704700BF00002110000011100000121026
:1010E00000003110000032100000221000100240F9
:1010F0000000014000080140000C014000100140C8
:10110000001401400004014080B483B000AF786057
:101110000B467B8013467B707B78002B03D07A884C
:101120007B681A6103E07B881A047B681A6100BF40
:101130000C37BD4680BC704780B483B000AF786088
:101140000B467B807B68DA687B885A407B68DA6074
:1011500000BF0C37BD4680BC7047000080B582B030
:1011600000AF0346FB80084B5A69FB881340002BF5
:1011700006D0054AFB885361FB88184603F02CFD16
:1011800000BF0837BD4680BD0004014080B584B073
:1011900000AF78600023FB600023BB607B68002BFE
:1011A00001D10123E7E07B6893F83D30DBB2002BEF
:1011B00006D17B68002283F83C20786804F070FC3C
:1011C0007B68242283F83D207B681B681A687B6853
:1011D0001B6822F001021A6002F014FCB8607B6800
:1011E0005B68674A934207D8BB68664A934294BFDC
:1011F00001230023DBB206E0BB68634A934294BF3D
:1012000001230023DBB2002B01D00123B3E0BB6834
:101210005E4AA2FB03239B0CFB607B681B68FA6899
:101220005A607B685B68564A934202D8FB68013378
:1012300009E0FB684FF4967202FB03F3544AA2FBE9
:1012400003239B0901337A68126813627B685B6829
:101250004B4A93420DD8BB685A1E7B685B685B00A3
:10126000B2FBF3F30133C3F30B03042B38BF0423A6
:101270004FE07B689B68002B11D1BB68591E7B68CF
:101280005A6813465B001344B1FBF3F30133C3F315
:101290000B03002B0CBF01230023DBB212E0BB6861
:1012A000591E7B685A6813469B0013449A001344E6
:1012B000B1FBF3F30133C3F30B03002B0CBF01238A
:1012C0000023DBB2002B01D0012322E07B689B6866
:1012D000002B0ED1BB68591E7B685A6813465B0011
:1012E0001344B1FBF3F30133C3F30B0343F40043A3
:1012F0000FE0BB68591E7B685A6813469B00134475
:101300009A001344B1FBF3F30133C3F30B0343F42B
:1013100040437A681268D3617B68D9697B681A6A2E
:101320007B681B680A431A607B6819697B68DA6806
:101330007B681B680A439A607B6859697B689A6975
:101340007B681B680A43DA607B681B681A687B68E5
:101350001B6842F001021A607B6800221A647B68F5
:10136000202283F83D207B6800221A637B680022DC
:1013700083F83E20002318461037BD4680BD00BFCD
:10138000A08601007F841E00FF083D0083DE1B4312
:10139000D34D621080B588B002AFF8607A601A460B
:1013A0000B467B8113463B8100237B61FFF7C4FB27
:1013B0007861FB6893F83D30DBB2202B40F0EE8083
:1013C0007B690093192301227749F86801F094FDA5
:1013D0000346002B01D00223E1E0FB6893F83C3088
:1013E000012B01D10223DAE0FB68012283F83C20C3
:1013F000FB681B681B6803F00103012B07D0FB6827
:101400001B681A68FB681B6842F001021A60FB68DF
:101410001B681A68FB681B6822F400621A60FB688C
:10142000212283F83D20FB68102283F83E20FB68D0
:1014300000221A64FB687A685A62FB683A895A8506
:10144000FB685A4ADA62FB685B8D9AB2FB681A85C0
:1014500079897B693A6AF86801F0B6FB0346002B8C
:101460000FD0FB681B6C042B05D1FB68002283F8AE
:101470003C20012393E0FB68002283F83C200323F7
:101480008DE000233B61FB681B685B693B61FB6887
:101490001B689B693B613B6966E07A69396AF86859
:1014A00001F0E9FD0346002B0FD0FB681B6C042BF9
:1014B00009D1FB681B681A68FB681B6842F400725C
:1014C0001A6001236BE0032369E0FB685B6A591C27
:1014D000FA6851621A78FB681B681A61FB685B8DB9
:1014E0009BB2013B9AB2FB685A85FB681B8D013B9E
:1014F0009AB2FB681A85FB681B685B6903F00403FA
:10150000042B19D1FB681B8D002B15D0FB685B6A7F
:10151000591CFA6851621A78FB681B681A61FB68EB
:101520005B8D9BB2013B9AB2FB685A85FB681B8DB1
:10153000013B9AB2FB681A857A69396AF86801F04A
:10154000D7FD0346002B0FD0FB681B6C042B09D181
:10155000FB681B681A68FB681B6842F400721A601B
:1015600001231CE003231AE0FB681B8D002B94D1A0
:10157000FB681B681A68FB681B6842F400721A60FB
:10158000FB68202283F83D20FB68002283F83E2080
:10159000FB68002283F83C20002300E00223184669
:1015A0001837BD4680BD00BF020010000000FFFFDD
:1015B00080B58CB002AFF8607A601A460B467B812A
:1015C00013463B8100237B62FFF7B6FA7862FB6823
:1015D00093F83D30DBB2202B40F01D827B6A0093F4
:1015E000192301228749F86801F086FC0346002B85
:1015F00001D0022310E2FB6893F83C30012B01D1AB
:10160000022309E2FB68012283F83C20FB681B6887
:101610001B6803F00103012B07D0FB681B681A68E5
:10162000FB681B6842F001021A60FB681B681A68BD
:10163000FB681B6822F400621A60FB68222283F8B0
:101640003D20FB68102283F83E20FB6800221A64CC
:10165000FB687A685A62FB683A895A85FB686A4A6D
:10166000DA62FB685B8D9AB2FB681A8579897B6ABE
:101670003A6BF86801F02AFB0346002B0FD0FB6899
:101680001B6C042B05D1FB68002283F83C2001234E
:10169000C2E1FB68002283F83C200323BCE1FB6825
:1016A0001B8D002B13D100233B62FB681B685B6919
:1016B0003B62FB681B689B693B623B6AFB681B687B
:1016C0001A68FB681B6842F400721A6090E1FB68BC
:1016D0001B8D012B1DD1FB681B681A68FB681B68FA
:1016E00022F480621A6072B60023FB61FB681B68FB
:1016F0005B69FB61FB681B689B69FB61FB69FB68BD
:101700001B681A68FB681B6842F400721A6062B6B4
:101710006EE1FB681B8D022B1DD1FB681B681A68EC
:10172000FB681B6842F400621A6072B60023BB615A
:10173000FB681B685B69BB61FB681B689B69BB61DD
:10174000BB69FB681B681A68FB681B6822F480622F
:101750001A6062B64CE1FB681B681A68FB681B687C
:1017600042F480621A6000237B61FB681B685B693E
:101770007B61FB681B689B697B617B6938E1FB6867
:101780001B8D032B00F2EF80FB681B8D012B27D1F3
:101790007A6A396BF86801F0E8FC0346002B07D041
:1017A000FB681B6C202B01D1032335E1012333E1BE
:1017B000FB681B681869FB685B6A591CFA68516210
:1017C000C2B21A70FB681B8D013B9AB2FB681A8586
:1017D000FB685B8D9BB2013B9AB2FB685A8507E1BF
:1017E000FB681B8D022B4CD17B6A00933B6B002264
:1017F0000649F86801F080FB0346002B08D003235C
:101800000AE100BF020010000000FFFF0400010019
:1018100072B6FB681B681A68FB681B6842F40072AA
:101820001A60FB681B681869FB685B6A591CFA68D8
:101830005162C2B21A70FB681B8D013B9AB2FB6801
:101840001A85FB685B8D9BB2013B9AB2FB685A8597
:1018500062B6FB681B681869FB685B6A591CFA680A
:101860005162C2B21A70FB681B8D013B9AB2FB68D1
:101870001A85FB685B8D9BB2013B9AB2FB685A8567
:10188000B6E07B6A00933B6B00226549F86801F083
:1018900033FB0346002B01D00323BDE0FB681B682C
:1018A0001A68FB681B6822F480621A6072B6FB68D3
:1018B0001B681869FB685B6A591CFA685162C2B2FE
:1018C0001A70FB681B8D013B9AB2FB681A85FB6896
:1018D0005B8D9BB2013B9AB2FB685A857B6A009391
:1018E0003B6B00224E49F86801F006FB0346002BD3
:1018F00001D0032390E0FB681B681A68FB681B6833
:1019000042F400721A60FB681B681869FB685B6A26
:10191000591CFA685162C2B21A70FB681B8D013BF8
:101920009AB2FB681A85FB685B8D9BB2013B9AB249
:10193000FB685A8562B6FB681B681869FB685B6ABE
:10194000591CFA685162C2B21A70FB681B8D013BC8
:101950009AB2FB681A85FB685B8D9BB2013B9AB219
:10196000FB685A8544E07A6A396BF86801F0FDFB40
:101970000346002B07D0FB681B6C202B01D10323EF
:101980004AE0012348E0FB681B681869FB685B6A52
:10199000591CFA685162C2B21A70FB681B8D013B78
:1019A0009AB2FB681A85FB685B8D9BB2013B9AB2C9
:1019B000FB685A85FB681B685B6903F00403042B12
:1019C00016D1FB681B681869FB685B6A591CFA68CA
:1019D0005162C2B21A70FB681B8D013B9AB2FB6860
:1019E0001A85FB685B8D9BB2013B9AB2FB685A85F6
:1019F000FB681B8D002B7FF4C2AEFB68202283F8AE
:101A00003D20FB68002283F83E20FB68002283F81B
:101A10003C20002300E0022318462837BD4680BD45
:101A20000400010080B586B000AF78607B681B6859
:101A30009B697B617B681B685B693B617B681B689A
:101A40005B68FB607B6893F83E30DBB2BB60BB68D1
:101A5000102B02D0BB68402B72D13B6903F00113FD
:101A6000002B08D0FB6803F40073002B03D07868C8
:101A700000F013FC1AE03A69654B1340002B08D0C4
:101A8000FB6803F40073002B03D0786800F071FC4E
:101A90000CE03A695F4B1340002B07D0FB6803F45E
:101AA0000073002B02D0786800F073FC7A695A4BFF
:101AB0001340002B22D03A69584B1340002B0DD015
:101AC000FB6803F48063002B08D03A69544B134041
:101AD000002B03D1786800F014F930E03A69504BDC
:101AE0001340002B00F08F80FB6803F40073002B81
:101AF00000F08980786800F0F9F984E03A69494B90
:101B00001340002B0DD0FB6803F48063002B08D03A
:101B10003A69434B1340002B03D1786800F05BFA1D
:101B20000DE03A693E4B1340002B6CD0FB6803F488
:101B30000073002B67D0786800F0EEFA63E062E093
:101B40003A69344B1340002B08D0FB6803F4007350
:101B5000002B03D0786800F043FE55E03A69324B21
:101B60001340002B08D0FB6803F40073002B03D054
:101B7000786800F05FFE47E07A69274B1340002B3E
:101B800020D03A69254B1340002B0DD0FB6803F49D
:101B90008063002B08D03A69214B1340002B03D1FE
:101BA000786800F063FD2FE03A691D4B1340002B6D
:101BB0002AD0FB6803F40073002B25D0786800F06E
:101BC00092FD21E03A69174B1340002B0DD0FB68C2
:101BD00003F48063002B08D03A69114B1340002BAB
:101BE00003D1786800F09EFD0EE03A690C4B13407B
:101BF000002B09D0FB6803F40073002B04D0786835
:101C000000F0CEFD00E000BF00BF1837BD4680BD2C
:101C10000800010002000100040010008000010023
:101C200004000100400001001000010080B483B0F6
:101C300000AF786000BF0C37BD4680BC704780B4F1
:101C400083B000AF786000BF0C37BD4680BC7047E2
:101C500080B483B000AF786000BF0C37BD4680BC55
:101C6000704780B483B000AF786000BF0C37BD46CA
:101C700080BC704780B483B000AF78600B46FB70C7
:101C800013463B8000BF0C37BD4680BC704780B414
:101C900083B000AF786000BF0C37BD4680BC704792
:101CA00080B483B000AF786000BF0C37BD4680BC05
:101CB000704780B483B000AF786000BF0C37BD467A
:101CC00080BC704780B483B000AF786000BF0C3731
:101CD000BD4680BC704780B483B000AF786000BF61
:101CE0000C37BD4680BC704780B483B000AF7860CD
:101CF0007B6893F83D30DBB218460C37BD4680BC9C
:101D0000704780B586B000AF78607B6893F83D304F
:101D1000DBB27B617B6893F83E30DBB23B617B6872
:101D2000DB6AFB607B681B8D002B50D17B69212B0C
:101D30004DD1FB68042B1DD0FB68082B1AD0FB6823
:101D400013F5803F16D07B681B685A687B681B6858
:101D500022F4E0625A607B6811221A637B680022D9
:101D600083F83E207B68202283F83D207868FFF7C7
:101D70005DFFB6E07B681B685A687B681B6822F4CD
:101D8000E0625A607B681B681A687B681B6842F4D3
:101D900000721A607B6800221A637B68202283F835
:101DA0003D207B6893F83E30DBB2402B07D17B6847
:101DB000002283F83E207868FFF772FF91E07B688D
:101DC000002283F83E207868FFF730FF89E07B69C6
:101DD000212B06D03B69402B40F083807B69222B6E
:101DE0007FD17B685B8D9BB2002B08D17B681B6821
:101DF0005A687B681B6822F480625A6071E07B68D5
:101E000093F83E30DBB2402B5BD17B681B6D002B1F
:101E10001DD17B68DB6C012B0BD17B689B6CDAB22C
:101E20007B681B681A617B681B6D9A1C7B681A654E
:101E300057E07B689B6C9BB21B12DAB27B681B6815
:101E40001A617B681B6D5A1C7B681A6549E07B68C8
:101E50001B6D012B0BD17B689B6CDAB27B681B6816
:101E60001A617B681B6D5A1C7B681A6539E07B68B8
:101E70001B6D022B35D17B6893F83D30DBB2222BF2
:101E800008D17B681B681A687B681B6842F4807203
:101E90001A6026E07B6893F83D30DBB2212B20D11D
:101EA0007B685B6A591C7A6851621A787B681B6888
:101EB0001A617B685B8D9BB2013B9AB27B685A8545
:101EC0000FE07B685B6A591C7A6851621A787B68FC
:101ED0001B681A617B685B8D9BB2013B9AB27B6881
:101EE0005A85002318461837BD4680BD80B584B09A
:101EF00000AF78607B68DB6AFB607B6893F83D30FD
:101F0000DBB2212B62D17B685B8D9BB2002B10D0A2
:101F10007B685B6A591C7A6851621A787B681B6817
:101F20001A617B685B8D9BB2013B9AB27B685A85D4
:101F30004CE0FB68042B1DD0FB68082B1AD0FB6813
:101F400013F5803F16D07B681B685A687B681B6856
:101F500022F4E0625A607B6811221A637B680022D7
:101F600083F83E207B68202283F83D207868FFF7C5
:101F70005DFE2BE07B681B685A687B681B6822F457
:101F8000E0625A607B681B681A687B681B6842F4D1
:101F900000721A607B6800221A637B68202283F833
:101FA0003D207B6893F83E30DBB2402B07D17B6845
:101FB000002283F83E207868FFF772FE06E07B6817
:101FC000002283F83E207868FFF730FE0023184691
:101FD0001037BD4680BD80B584B000AF78607B68A7
:101FE00093F83D30DBB2222B40F091800023FB6060
:101FF0007B685B8D9BB2FB60FB68032B11D97B6810
:102000001B6818697B685B6A591C7A685162C2B2A6
:102010001A707B685B8D9BB2013B9AB27B685A85D4
:1020200075E0FB68022B02D0FB68032B25D17B688F
:10203000DB6A022B10D07B681B681A687B681B6800
:1020400022F480621A607B681B681A687B681B68D0
:1020500042F400621A6007E07B681B681A687B68BC
:102060001B6842F480621A607B681B685A687B6850
:102070001B6822F480625A6049E07B68DB6A022BAD
:1020800008D07B681B681A687B681B6822F4806232
:102090001A6007E07B681B681A687B681B6842F45B
:1020A00080621A607B681B685A687B681B6822F430
:1020B000E0625A607B681B6818697B685B6A591C20
:1020C0007A685162C2B21A707B685B8D9BB2013B29
:1020D0009AB27B685A857B68202283F83D207B6812
:1020E00000221A637B6893F83E30DBB2402B07D1A5
:1020F0007B68002283F83E207868FFF7DAFD06E06F
:102100007B68002283F83E207868FFF798FD002363
:1021100018461037BD4680BD80B584B000AF7860EA
:102120007B68DB6AFB607B685B8D9BB2032B23D1F2
:10213000FB68042B06D0FB68082B03D0FB6813F563
:10214000803F07D17B681B681A687B681B6822F494
:1021500080621A607B681B6818697B685B6A591C1F
:102160007A685162C2B21A707B685B8D9BB2013B88
:102170009AB27B685A858BE07B685B8D9BB2022BA1
:1021800075D1FB68042B23D0FB68082B20D0FB689B
:1021900013F5803F1CD0FB68022B08D07B681B68BE
:1021A0001A687B681B6822F480621A6007E07B680B
:1021B0001B681A687B681B6842F480621A607B683F
:1021C0001B685A687B681B6822F440725A600FE0F3
:1021D0007B681B685A687B681B6822F440725A60EF
:1021E0007B681B681A687B681B6842F400721A607F
:1021F0007B681B6818697B685B6A591C7A68516246
:10220000C2B21A707B685B8D9BB2013B9AB27B684D
:102210005A857B681B6818697B685B6A591C7A68F9
:102220005162C2B21A707B685B8D9BB2013B9AB25D
:102230007B685A857B68202283F83D207B680022DA
:102240001A637B6893F83E30DBB2402B07D17B6882
:10225000002283F83E207868FFF72BFD18E07B68AA
:10226000002283F83E207868FFF7E9FC10E07B68E5
:102270001B6818697B685B6A591C7A685162C2B234
:102280001A707B685B8D9BB2013B9AB27B685A8562
:10229000002318461037BD4680BD80B483B000AF20
:1022A00078607B6893F83E30DBB2402B17D17B68B7
:1022B0001B6D002B09D17B685B6CDBB21A467B6817
:1022C0001B6802F0FE021A614DE07B685B6CDBB2BA
:1022D00043F00103DAB27B681B681A6143E07B6854
:1022E0001B69B3F5804F19D17B6893F83D30DBB2A1
:1022F000212B09D17B685B6CDBB21A467B681B68BB
:1023000002F0FE021A612EE07B685B6CDBB243F0E8
:102310000103DAB27B681B681A6124E07B681B6DDD
:10232000002B0ED17B685B6C9BB2DB11DBB203F040
:102330000603DBB263F00F03DAB27B681B681A6135
:1023400011E07B681B6D012B0DD17B685B6C9BB230
:10235000DB11DBB203F00603DBB263F00E03DAB28B
:102360007B681B681A61002318460C37BD4680BC89
:10237000704780B483B000AF78607B685B6CDAB282
:102380007B681B681A61002318460C37BD4680BC69
:10239000704780B491B000AF78607B6893F83E30AE
:1023A000DBB2FB637B68DB6ABB637B681B6B7B63B5
:1023B0007B6893F83D30DBB2222B40F046817B688E
:1023C0001B6D002B0ED1FB6B402B0BD100233B630D
:1023D0007B681B685B693B637B681B689B693B632D
:1023E0003B6B3DE17B681B6D002B1DD17B681B693E
:1023F000B3F5404F18D10023FB627B681B685B6913
:10240000FB627B681B689B69FB62FB6A7B681B68DD
:102410001A687B681B6842F480721A607B681B6DC7
:102420005A1C7B681A651BE17B685B8D9BB2002B95
:1024300013D10023BB627B681B685B69BB627B684E
:102440001B689B69BB62BB6A7B681B681A687B68F8
:102450001B6842F400721A60F3E07B685B8D9BB2EC
:10246000012B40F08280BB6B13F5803F37D17B6836
:102470001B681A687B681B6822F480621A607B689C
:102480001B685B6803F40063B3F5006F13D17B68CE
:102490001B681A687B681B6822F480621A6000233C
:1024A0007B627B681B685B697B627B681B689B69DE
:1024B0007B627B6AC5E000233B627B681B685B69CB
:1024C0003B627B681B689B693B623B6A7B681B685D
:1024D0001A687B681B6842F400721A60B1E0BB6B3B
:1024E000042B26D0BB6B082B23D07B6B122B20D068
:1024F0007B68DB6A022B08D07B681B681A687B68E4
:102500001B6822F480621A6007E07B681B681A6807
:102510007B681B6842F480621A600023FB617B6861
:102520001B685B69FB617B681B689B69FB61FB69DE
:1025300087E07B681B681A687B681B6822F48062EE
:102540001A600023BB617B681B685B69BB617B68A9
:102550001B689B69BB61BB697B681B681A687B68E9
:102560001B6842F400721A606BE07B685B8D9BB263
:10257000022B43D17B68DB6A022B1BD07B681B6874
:102580001A687B681B6842F400621A6000237B6152
:102590007B681B685B697B617B681B689B697B61EF
:1025A0007B697B681B681A687B681B6822F4806201
:1025B0001A6012E07B681B681A687B681B6842F42B
:1025C00080621A6000233B617B681B685B693B612A
:1025D0007B681B689B693B613B697B681B685B6828
:1025E00003F40063B3F5006F2BD17B681B685A6856
:1025F0007B681B6842F480525A6022E07B681B684B
:102600001A687B681B6842F480621A607B681B68EA
:102610005B6803F40063B3F5006F07D17B681B6848
:102620005A687B681B6842F480525A600023FB6042
:102630007B681B685B69FB607B681B689B69FB6050
:10264000FB687B6800221A650AE00023BB607B6898
:102650001B685B69BB607B681B689B69BB60BB6870
:10266000002318464437BD4680BC704780B584B00F
:1026700000AF78607B6893F83D30DBB2FB607B682D
:102680005B8D9BB2002B29D07B685B6A591C7A68F2
:1026900051621A787B681B681A617B685B8D9BB2FC
:1026A000013B9AB27B685A857B685B8D9BB2002B9D
:1026B00014D1FB68292B11D17B681B685A687B6891
:1026C0001B6822F480625A607B6821221A637B684F
:1026D000282283F83D207868FFF7BAFA00231846CD
:1026E0001037BD4680BD80B483B000AF78607B6892
:1026F0005B8D9BB2002B0FD07B685B6A591C7A689C
:1027000051621A787B681B681A617B685B8D9BB28B
:10271000013B9AB27B685A85002318460C37BD46A8
:1027200080BC704780B584B000AF78607B6893F858
:102730003D30DBB2FB607B685B8D9BB2002B2AD007
:102740007B681B6818697B685B6A591C7A685162F0
:10275000C2B21A707B685B8D9BB2013B9AB27B68F8
:102760005A857B685B8D9BB2002B14D1FB682A2BAA
:1027700011D17B681B685A687B681B6822F48062F1
:102780005A607B6822221A637B68282283F83D20E6
:102790007868FFF766FA002318461037BD4680BDFB
:1027A00080B483B000AF78607B685B8D9BB2002BF8
:1027B00010D07B681B6818697B685B6A591C7A6853
:1027C0005162C2B21A707B685B8D9BB2013B9AB2B8
:1027D0007B685A85002318460C37BD4680BC70477D
:1027E00080B584B000AF78600023FB730023BB8109
:1027F0007B681B689B6903F00403042B01D0012351
:10280000FB737B681B689B6903F08003802B03D0FC
:102810007B68DB68BB8102E07B689B69BB81BA890E
:10282000FB7B19467868FFF725FA00231846103716
:10283000BD4680BD80B584B000AF78607B6893F8FA
:102840003D30DBB2FB607B681B685A687B681B68A5
:1028500022F4E0625A600023BB607B681B685B69FE
:10286000BB607B681B681A687B681B6842F00102CA
:102870001A60BB687B681B681A687B681B6822F457
:1028800080621A607B681B685B6803F40063B3F5C1
:10289000006F1AD17B6893F83D30DBB2222B05D054
:1028A0007B6893F83D30DBB22A2B07D17B689B6BAA
:1028B0001B685B689AB27B685A8506E07B685B6B35
:1028C0001B685B689AB27B685A857B685B8D9BB29C
:1028D000002B35D07B681B685B6903F00403042B75
:1028E00010D17B681B6818697B685B6A591C7A6821
:1028F0005162C2B21A707B685B8D9BB2013B9AB287
:102900007B685A857B681B685B6903F04003402B3A
:1029100010D17B681B6818697B685B6A591C7A68F0
:102920005162C2B21A707B685B8D9BB2013B9AB256
:102930007B685A857B681B6C43F004027B681A64D1
:102940007B681B6C002B03D0786800F039F82FE00F
:10295000FB68282B05D0FB682A2B02D0FB68292BAB
:1029600011D17B68154ADA627B6800221A637B68A2
:10297000202283F83D207B68002283F83E2078687F
:10298000FFF785F914E07B681B6B222B02D0FB68F4
:10299000222B0DD17B6800221A637B68202283F8EA
:1029A0003D207B68002283F83E207868FFF759F9C4
:1029B000002318461037BD4680BD00BF0000FFFF52
:1029C00080B584B000AF78607B6893F83D30DBB2AF
:1029D000FB60FB68292B02D0FB682A2B07D17B68A0
:1029E00000221A637B68282283F83D2018E07B6868
:1029F00093F83D30DBB2602B0BD07B681B685B68C3
:102A000003F40063B3F5006F03D07B68202283F8E2
:102A10003D207B6800221A637B68002283F83E20F9
:102A20007B681B681A687B681B6822F400621A6066
:102A30007B681B685B6803F40063B3F5006F5FD1CC
:102A40007B681B685A687B681B6822F400625A60C6
:102A50007B685B6B93F82130012B20D07B685B6B2C
:102A6000574A5A637B685B6B1846FEF779F9034651
:102A7000002B00F083807B681B681A687B681B68EA
:102A800022F001021A607B68202283F83D207B68D7
:102A90005B6B5B6B7A68526B104698476EE07B68A5
:102AA0009B6B474A5A637B689B6B1846FEF758F945
:102AB0000346002B62D07B681B685B6903F0400310
:102AC000402B09D17B681B6818697B685B6A591CBD
:102AD0007A685162C2B21A707B681B681A687B6898
:102AE0001B6822F001021A607B68202283F83D20D7
:102AF0007B689B6B5B6B7A68926B104698473DE0F6
:102B00007B6893F83D30DBB2602B23D17B682022B9
:102B100083F83D207B6800221A647B681B685B6930
:102B200003F04003402B09D17B681B6818697B6860
:102B30005B6A591C7A685162C2B21A707B681B6862
:102B40001A687B681B6822F001021A607868FFF738
:102B5000C2F813E07B681B685B6903F04003402BFD
:102B600009D17B681B6818697B685B6A591C7A68A5
:102B70005162C2B21A707868FFF7A4F87B6893F8C4
:102B80003D30DBB2282B16D17B681B6C03F00403AD
:102B9000042B10D17B680B4ADA627B6800221A632F
:102BA0007B68202283F83D207B68002283F83E204A
:102BB0007868FFF76CF800BF1037BD4680BD00BFD6
:102BC0005D2E00080000FFFF80B588B002AFF860FE
:102BD0007A603B600B467B81FB68DB6A7B617B69CB
:102BE000042B06D07B69012B03D07B6913F5803F52
:102BF00008D1FB681B681A68FB681B6842F4807286
:102C00001A600BE0FB681B6B122B07D1FB681B687B
:102C10001A68FB681B6842F480721A603B68009374
:102C20007B6800224FF00111F86800F065F9034657
:102C3000002B01D0032341E0FB681B69B3F5804FF3
:102C400008D17B89DBB21A46FB681B6802F0FE02E2
:102C50001A6121E07B89DB11DBB203F00603DBB2F2
:102C600063F00F03DAB2FB681B681A613B687A688D
:102C70001449F86800F091F90346002B07D0FB686F
:102C80001B6C042B01D1012318E0032316E07B8980
:102C9000DAB2FB681B681A613B687A680A49F8680F
:102CA00000F07BF90346002B07D0FB681B6C042B5C
:102CB00001D1012302E0032300E000231846183766
:102CC000BD4680BD080001000200010080B588B04B
:102CD00002AFF8607A603B600B467B81FB68DB6A81
:102CE0007B61FB681B681A68FB681B6842F48062A2
:102CF0001A607B69042B06D07B69012B03D07B69AA
:102D000013F5803F08D1FB681B681A68FB681B68D5
:102D100042F480721A600BE0FB681B6B112B07D129
:102D2000FB681B681A68FB681B6842F480721A60B3
:102D30003B6800937B6800224FF00111F86800F0B7
:102D4000DBF80346002B01D003237FE0FB681B69FF
:102D5000B3F5804F08D17B89DBB243F00103DAB2CF
:102D6000FB681B681A615FE07B89DB11DBB203F053
:102D70000603DBB263F00F03DAB2FB681B681A616B
:102D80003B687A683349F86800F007F90346002B7E
:102D900007D0FB681B6C042B01D1012356E00323F1
:102DA00054E07B89DAB2FB681B681A613B687A6879
:102DB0002949F86800F0F1F80346002B07D0FB68BA
:102DC0001B6C042B01D1012340E003233EE00023D0
:102DD0003B61FB681B685B693B61FB681B689B6927
:102DE0003B613B69FB681B681A68FB681B6842F41F
:102DF00080721A603B6800937B6800224FF00111DB
:102E0000F86800F079F80346002B01D003231DE099
:102E10007B89DB11DBB203F00603DBB263F00E0348
:102E2000DAB2FB681B681A613B687A680A49F8687D
:102E300000F0B3F80346002B07D0FB681B6C042B93
:102E400001D1012302E0032300E0002318461837D4
:102E5000BD4680BD080001000200010080B584B0BD
:102E600000AF78607B685B6AFB60FB681B681A6870
:102E7000FB681B6822F480621A60FB6800225A8596
:102E8000FB685B6B00225A63FB689B6B00225A63F2
:102E9000FB6893F83D30DBB2602B16D1FB68202233
:102EA00083F83D20FB68002283F83E20FB68002267
:102EB0001A64FB681B681A68FB681B6822F0010231
:102EC0001A60F868FEF707FF12E0FB68202283F81B
:102ED0003D20FB68002283F83E20FB681B681A68CF
:102EE000FB681B6822F001021A60F868FEF7EAFE30
:102EF00000BF1037BD4680BD80B584B000AFF8601C
:102F0000B9603B601346FB711FE03B68B3F1FF3FC4
:102F10001BD03B68002B07D0FDF70EFE0246BB69B5
:102F2000D31A3A689A4210D2FB6800221A63FB68EF
:102F3000202283F83D20FB68002283F83E20FB68B6
:102F4000002283F83C20032323E0BB681B0CDBB288
:102F5000012B0DD1FB681B685B69DA43BB6813402A
:102F60009BB2002B0CBF01230023DBB21A460CE0FE
:102F7000FB681B689B69DA43BB6813409BB2002B5C
:102F80000CBF01230023DBB21A46FB799A42BCD066
:102F9000002318461037BD4680BD80B584B000AF11
:102FA000F860B9607A603B6040E0FB681B685B6971
:102FB00003F48063B3F5806F1CD1FB681B681A684B
:102FC000FB681B6842F400721A60FB681B686FF4B0
:102FD00080625A61FB6804221A64FB6800221A634B
:102FE000FB68202283F83D20FB68002283F83C2008
:102FF00001233CE07B68B3F1FF3F17D07B68002BD7
:1030000007D0FDF799FD02463B68D31A7A689A42C9
:103010000CD2FB6800221A63FB68202283F83D2053
:10302000FB68002283F83C20032320E0BB681B0CD4
:10303000DBB2012B0CD1FB681B685B69DA43BB6810
:1030400013409BB2002B14BF01230023DBB20BE023
:10305000FB681B689B69DA43BB6813409BB2002B7B
:1030600014BF01230023DBB2002B9ED1002318469E
:103070001037BD4680BD80B584B000AFF860B96040
:103080007A6029E0F86800F0BAF80346002B01D016
:10309000012329E0BB68B3F1FF3F1DD0BB68002BC3
:1030A00007D0FDF749FD02467B68D31ABA689A42F9
:1030B00012D2FB681B6C43F02002FB681A64FB68A9
:1030C00000221A63FB68202283F83D20FB6800225F
:1030D00083F83C20032307E0FB681B685B6903F06F
:1030E0008003802BCED1002318461037BD4680BD0B
:1030F00080B584B000AFF860B9607A6029E0F86804
:1031000000F07DF80346002B01D0012329E0BB68C5
:10311000B3F1FF3F1DD0BB68002B07D0FDF70CFDBE
:1031200002467B68D31ABA689A4212D2FB681B6CBB
:1031300043F02002FB681A64FB6800221A63FB68F4
:10314000202283F83D20FB68002283F83C200323E3
:1031500007E0FB681B685B6903F00403042BCED116
:10316000002318461037BD4680BD80B584B000AF3F
:10317000F860B9607A6036E0FB681B685B6903F051
:103180001003102B14D1FB681B686FF010025A61FA
:10319000FB6800221A64FB6800221A63FB68202285
:1031A00083F83D20FB68002283F83C20012322E0C5
:1031B000BB68002B07D0FDF7BFFC02467B68D31A23
:1031C000BA689A420FD2FB681B6C43F02002FB687E
:1031D0001A64FB68202283F83D20FB68002283F8F4
:1031E0003C20032307E0FB681B685B6903F0400396
:1031F000402BC1D1002318461037BD4680BD80B496
:1032000083B000AF78607B681B685B6903F4806300
:10321000B3F5806F14D17B681B686FF480625A61CC
:103220007B6804221A647B6800221A637B68202270
:1032300083F83D207B68002283F83C20012300E0D6
:10324000002318460C37BD4680BC704780B586B059
:1032500000AF786000233B617B681B6803F00103CB
:10326000002B00F08780924B5B6803F00C03042B6B
:103270000CD08F4B5B6803F00C03082B12D18C4BE6
:103280005B6803F48033B3F5803F0BD1884B1B6838
:1032900003F40033002B6CD07B685B68002B68D193
:1032A00001232DE27B685B68B3F5803F06D1804B3C
:1032B0001B687F4A43F4803313602EE07B685B68B1
:1032C000002B0CD17A4B1B68794A23F480331360AE
:1032D000774B1B68764A23F4802313601DE07B68DC
:1032E0005B68B3F5A02F0CD1714B1B68704A43F497
:1032F000802313606E4B1B686D4A43F48033136068
:103300000BE06B4B1B686A4A23F480331360684BF5
:103310001B68674A23F4802313607B685B68002B7B
:1033200013D0FDF709FC386108E0FDF705FC024603
:103330003B69D31A642B01D90323E1E15C4B1B6881
:1033400003F40033002BF0D014E0FDF7F5FB3861F7
:1033500008E0FDF7F1FB02463B69D31A642B01D963
:103360000323CDE1524B1B6803F40033002BF0D153
:1033700000E000BF7B681B6803F00203002B63D0F2
:103380004B4B5B6803F00C03002B0BD0484B5B6886
:1033900003F00C03082B1CD1454B5B6803F480330E
:1033A000002B16D1424B1B6803F00203002B05D003
:1033B0007B681B69012B01D00123A1E13C4B1B68F9
:1033C00023F0F8027B685B69DB00394913430B602B
:1033D0003AE07B681B69002B20D0364B01221A6033
:1033E000FDF7AAFB386108E0FDF7A6FB02463B6942
:1033F000D31A022B01D9032382E12D4B1B6803F062
:103400000203002BF0D02A4B1B6823F0F8027B68E4
:103410005B69DB00264913430B6015E0254B002256
:103420001A60FDF789FB386108E0FDF785FB02466D
:103430003B69D31A022B01D9032361E11C4B1B68A2
:1034400003F00203002BF0D17B681B6803F0080334
:10345000002B39D07B689B69002B19D0164B0122B9
:103460001A60FDF769FB386108E0FDF765FB02466D
:103470003B69D31A022B01D9032341E10C4B5B6A50
:1034800003F00203002BF0D0012000F0E3FA1BE070
:10349000094B00221A60FDF74FFB38610EE0FDF783
:1034A0004BFB02463B69D31A022B07D9032327E1C2
:1034B000001002400000424280044242924B5B6A8C
:1034C00003F00203002BEAD17B681B6803F00403BE
:1034D000002B00F0A6800023FB758B4BDB6903F00B
:1034E0008053002B0DD1884BDB69874A43F0805312
:1034F000D361854BDB6903F08053FB60FB680123DC
:10350000FB75824B1B6803F48073002B18D17F4B33
:103510001B687E4A43F480731360FDF70DFB38612E
:1035200008E0FDF709FB02463B69D31A642B01D979
:103530000323E5E0754B1B6803F48073002BF0D088
:103540007B68DB68012B06D16F4B1B6A6E4A43F028
:10355000010313622DE07B68DB68002B0CD16A4B02
:103560001B6A694A23F001031362674B1B6A664AB0
:1035700023F0040313621CE07B68DB68052B0CD18D
:10358000614B1B6A604A43F0040313625E4B1B6A83
:103590005D4A43F0010313620BE05B4B1B6A5A4A1E
:1035A00023F001031362584B1B6A574A23F00403AC
:1035B00013627B68DB68002B15D0FDF7BDFA38611C
:1035C0000AE0FDF7B9FA02463B69D31A41F28832A4
:1035D000934201D9032393E04B4B1B6A03F0020390
:1035E000002BEED014E0FDF7A7FA38610AE0FDF7F2
:1035F000A3FA02463B69D31A41F28832934201D9B9
:1036000003237DE0404B1B6A03F00203002BEED145
:10361000FB7D012B05D13C4BDB693B4A23F08053FA
:10362000D3617B68DB69002B69D0374B5B6803F0A3
:103630000C03082B61D07B68DB69022B46D1344B2D
:1036400000221A60FDF778FA386108E0FDF774FA95
:1036500002463B69D31A022B01D9032350E02A4BBF
:103660001B6803F00073002BF0D17B681B6AB3F575
:10367000803F08D1244B5B6823F400327B689B6851
:10368000214913434B60204B5B6823F474127B6821
:10369000196A7B685B6A0B431B4913434B601C4BE5
:1036A00001221A60FDF748FA386108E0FDF744FA94
:1036B00002463B69D31A022B01D9032320E0124BA7
:1036C0001B6803F00073002BF0D018E0104B0022B1
:1036D0001A60FDF731FA386108E0FDF72DFA02466D
:1036E0003B69D31A022B01D9032309E0064B1B685F
:1036F00003F00073002BF0D101E0012300E0002370
:1037000018461837BD4680BD0010024000700040CA
:103710006000424280B584B000AF78603960002319
:10372000FB607E4B1B6803F007033A689A4210D98E
:103730007A4B1B6823F0070278493B6813430B6000
:10374000764B1B6803F007033A689A4201D00123C5
:10375000E0E07B681B6803F00203002B20D07B684D
:103760001B6803F00403002B05D06D4B5B686C4AAB
:1037700043F4E06353607B681B6803F00803002B8D
:1037800005D0674B5B68664A43F460535360644BF3
:103790005B6823F0F0027B689B68614913434B60D0
:1037A0007B681B6803F00103002B6AD07B685B68B1
:1037B000012B07D15A4B1B6803F40033002B15D1A2
:1037C0000123A7E07B685B68022B07D1544B1B6881
:1037D00003F00073002B09D101239BE0504B1B68C1
:1037E00003F00203002B01D1012393E04C4B5B68F3
:1037F00023F003027B685B68494913434B60FDF784
:103800009BF9F8607B685B68012B12D10AE0FDF739
:1038100093F90246FB68D31A41F28832934201D9E8
:10382000032377E03E4B5B6803F00C03042BEED1DF
:1038300027E07B685B68022B1DD10AE0FDF77CF96D
:103840000246FB68D31A41F28832934201D903231E
:1038500060E0334B5B6803F00C03082BEED110E003
:10386000FDF76AF90246FB68D31A41F288329342A7
:1038700001D903234EE02A4B5B6803F00C03002BB5
:10388000EED1264B1B6803F007033A689A4210D228
:10389000224B1B6823F0070220493B6813430B604F
:1038A0001E4B1B6803F007033A689A4201D00123BC
:1038B00030E07B681B6803F00403002B08D0184B32
:1038C0005B6823F4E0627B68DB68154913434B6057
:1038D0007B681B6803F00803002B09D0104B5B6862
:1038E00023F460527B681B69DB000D4913434B6076
:1038F00000F01CF801460A4B5B681B0903F00F033C
:10390000084AD35C21FA03F3074A13600020FDF74D
:10391000D1F8002318461037BD4680BD0020024074
:1039200000100240EC7800080800002090B48AB033
:1039300000AF2A4B3C1D0FCB84E80F00284B1B889F
:103940003B800023FB610023BB6100237B620023DB
:103950007B6100233B62234B5B68FB61FB6903F0E7
:103960000C03042B02D0082B03D02DE01E4B3B622E
:103970002DE0FB699B0C03F00F0307F128021344B1
:1039800013F8243C7B61FB6903F48033002B13D0D4
:10399000144B5B685B0C03F0010307F1280213442E
:1039A00013F8283CBB617B690F4A02FB03F2BB6939
:1039B000B2FBF3F37B6204E07B690C4A02FB03F386
:1039C0007B627B6A3B6202E0074B3B6200BF3B6A63
:1039D00018462837BD4690BC704700BFA87800083D
:1039E000B87800080010024000127A0000093D007B
:1039F00080B400AF024B1B681846BD4680BC7047C0
:103A00000800002080B500AFFFF7F2FF0146054B2C
:103A10005B681B0A03F00703034AD35C21FA03F334
:103A2000184680BD00100240FC78000880B500AF49
:103A3000FFF7DEFF0146054B5B68DB0A03F0070377
:103A4000034AD35C21FA03F3184680BD00100240FC
:103A5000FC78000880B485B000AF78600A4B1B6822
:103A60000A4AA2FB03235B0A7A6802FB03F3FB60AA
:103A700000BFFB685A1EFA60002BF9D100BF143753
:103A8000BD4680BC704700BF08000020D34D6210C7
:103A900080B58CB002AFF860B9607A607B8000239B
:103AA000FB610023BB6100237B6101237B62002358
:103AB00087F82330FB6893F85030012B01D10223A3
:103AC00082E1FB68012283F85020FDF735F8786128
:103AD000FB6893F85130DBB2FB61FB685B68BB614C
:103AE000FB69012B0ED0BB69B3F5827F06D1FB6861
:103AF0009B68002B02D1FB69042B03D0022387F8BB
:103B0000233057E1BB68002B05D07B68002B02D027
:103B10007B88002B03D1012387F823304AE1FB681F
:103B200093F85130DBB2012B03D1FB68052283F8F7
:103B30005120FB6800225A65FB687A689A63FB682B
:103B40007A88DA87FB687A889A87FB68BA681A638A
:103B5000FB687A88DA86FB687A889A86FB68002296
:103B60001A64FB6800225A64FB681B681B6803F038
:103B70004003402B07D0FB681B681A68FB681B6872
:103B800042F040021A60FB68DB68B3F5006F71D148
:103B9000FB685B68002B04D0FB68DB8E9BB2012BBB
:103BA0005DD1BB681A88FB681B68DA60BB680233AA
:103BB000BB60FB68DB8E9BB2013B9AB2FB68DA8686
:103BC0004DE07B6A002B1CD0FB68DB8E9BB2002B88
:103BD00017D0FB681B689B6803F00203022B10D10F
:103BE000BB681A88FB681B68DA60BB680233BB607D
:103BF000FB68DB8E9BB2013B9AB2FB68DA8600233E
:103C00007B62FB68DB8F9BB2002B18D0FB681B68C4
:103C10009B6803F00103012B11D1FB681B68DB6873
:103C20009AB27B681A807B6802337B60FB68DB8F0B
:103C30009BB2013B9AB2FB68DA8701237B623B6B44
:103C4000B3F1FF3F0BD0FCF777FF02467B69D31A35
:103C50003A6B9A4203D8032387F82330AAE0FB6823
:103C6000DB8E9BB2002BACD1FB68DB8F9BB2002BB1
:103C7000A7D170E0FB685B68002B04D0FB68DB8E8B
:103C80009BB2012B5DD1FB681B680C33BA681278BC
:103C90001A70BB680133BB60FB68DB8E9BB2013BD3
:103CA0009AB2FB68DA864CE07B6A002B1CD0FB687A
:103CB000DB8E9BB2002B17D0FB681B689B6803F060
:103CC0000203022B10D1BB685A1CBA60FA68126852
:103CD0000C321B781370FB68DB8E9BB2013B9AB2EF
:103CE000FB68DA8600237B62FB68DB8F9BB2002BCC
:103CF00017D0FB681B689B6803F00103012B10D1F0
:103D0000FB681B68D9687B685A1C7A60CAB21A7053
:103D1000FB68DB8F9BB2013B9AB2FB68DA87012319
:103D20007B623B6BB3F1FF3F0BD0FCF705FF024614
:103D30007B69D31A3A6B9A4203D8032387F823305E
:103D400038E0FB68DB8E9BB2002BADD1FB68DB8FCC
:103D50009BB2002BA8D17B6900933B6B012202210F
:103D6000F86800F042F80346002B03D0032387F8DD
:103D700023301FE07A69396BF86800F09FF803463A
:103D8000002B06D0012387F82330FB6820225A65D8
:103D900010E0FB689B68002B0BD100233B61FB68A4
:103DA0001B68DB683B61FB681B689B683B613B6988
:103DB00000E000BFFB68012283F85120FB6800226D
:103DC00083F8502097F8233018462837BD4680BD29
:103DD00080B483B000AF78607B6893F85130DBB279
:103DE00018460C37BD4680BC704780B584B000AF24
:103DF000F860B9607A603B604DE03B68B3F1FF3F2B
:103E000049D03B68002B07D0FCF796FE0246BB6901
:103E1000D31A3A689A423ED8FB681B685A68FB6816
:103E20001B6822F0E0025A60FB685B68B3F5827F92
:103E300011D1FB689B68B3F5004F04D0FB689B6809
:103E4000B3F5806F07D1FB681B681A68FB681B68B5
:103E500022F040021A60FB689B6AB3F5005F10D144
:103E6000FB681B681968FB681A684DF6FF730B4006
:103E70001360FB681B681A68FB681B6842F40052F9
:103E80001A60FB68012283F85120FB68002283F846
:103E9000502003230EE0FB681B689A68BB68134040
:103EA000BA689A4201D1012200E000227B689A425E
:103EB000A3D1002318461037BD4680BD80B586B01B
:103EC00002AFF860B9607A607B680093BB6800223B
:103ED0008021F868FFF789FF0346002B07D0FB68B5
:103EE0005B6D43F02002FB685A65032300E000236A
:103EF00018461037BD4680BD80B582B000AF7860EF
:103F00007B68002B01D1012357E07B6800229A6275
:103F10007B6893F85130DBB2002B02D1786801F056
:103F200005FE7B68022283F851207B681B681A68B3
:103F30007B681B6822F040021A607B685A687B68C5
:103F40009B681A437B68DB681A437B681B691A43CA
:103F50007B685B691A437B689B6903F400731A43AF
:103F60007B68DB691A437B681B6A42EA03017B6852
:103F70009A6A7B681B680A431A607B689B691B0C02
:103F800003F004017B685A6A7B681B680A435A6025
:103F90007B681B687A68D26A1A617B681B68DA6979
:103FA0007B681B6822F40062DA617B6800225A6534
:103FB0007B68012283F85120002318460837BD464C
:103FC00080BD80B582B000AF78607B68002B01D1E6
:103FD00001231DE07B6893F83D30DBB2002B06D156
:103FE0007B68002283F83C20786801F0E9FD7B685B
:103FF000022283F83D207B681A687B6804331946E7
:10400000104600F0FFF87B68012283F83D20002372
:1040100018460837BD4680BD80B483B000AF7860D5
:104020007B68022283F83D207B681B681A687B68E6
:104030001B6842F001021A607B68012283F83D2070
:10404000002318460C37BD4680BC704780B584B04D
:1040500000AF786039600023FB607B6893F83C30E8
:10406000012B01D10223C8E07B68012283F83C20A8
:104070007B68022283F83D207B681B689B68FB609D
:10408000FB6823F07703FB60FB6823F47F43FB604E
:104090007B681B68FA689A603B681B68402B77D086
:1040A000402B0ED8102B00F08A80102B02D8002B4A
:1040B0007ED099E0202B00F08980302B00F08D809D
:1040C00092E0702B16D0702B04D8502B40D0602B70
:1040D0004ED089E0B3F5805F03D0B3F5005F24D004
:1040E00082E07B681B689A687B681B6822F0070285
:1040F0009A6079E07B6818683B6899683B685A6801
:104100003B68DB6800F068F97B681B689B68FB60B4
:10411000FB6823F07703FB60FB6843F07703FB60E9
:104120007B681B68FA689A605EE07B6818683B6889
:1041300099683B685A683B68DB6800F04DF97B681A
:104140001B689A687B681B6842F480429A604BE067
:104150007B6818683B6859683B68DB681A4600F062
:10416000B7F87B681B685021184600F016F93BE051
:104170007B6818683B6859683B68DB681A4600F042
:10418000D9F87B681B686021184600F006F92BE01F
:104190007B6818683B6859683B68DB681A4600F022
:1041A00097F87B681B684021184600F0F6F81BE082
:1041B0007B681B680021184600F0EFF814E07B686C
:1041C0001B681021184600F0E8F80DE07B681B68BA
:1041D0002021184600F0E1F806E07B681B683021DA
:1041E000184600F0DAF800BF7B68012283F83D2012
:1041F0007B68002283F83C20002318461037BD4618
:1042000080BD000080B485B000AF786039600023C5
:10421000FB607B681B68FB607B682A4A93420BD07B
:104220007B68B3F1804F07D07B68274A934203D065
:104230007B68264A934208D1FB6823F07003FB6039
:104240003B685B68FA681343FB607B681D4A9342D6
:104250000BD07B68B3F1804F07D07B681A4A93423A
:1042600003D07B68194A934208D1FB6823F440735A
:10427000FB603B68DB68FA681343FB60FB6823F074
:104280008003FB603B685B69FA681343FB607B68F3
:10429000FA681A603B689A687B68DA623B681A6859
:1042A0007B689A627B68074A934203D13B681A692C
:1042B0007B681A637B6801225A6100BF1437BD46D0
:1042C00080BC7047002C0140000400400008004002
:1042D00080B487B000AFF860B9607A6000237B617A
:1042E00000233B61FB681B6A3B61FB681B6A23F090
:1042F0000102FB681A62FB689B697B617B6923F0A2
:10430000F0037B617B681B017A6913437B613B6926
:1043100023F00A033B613A69BB6813433B61FB68C6
:104320007A699A61FB683A691A6200BF1C37BD4618
:1043300080BC704780B487B000AFF860B9607A6025
:1043400000237B6100233B61FB681B6A23F01002A2
:10435000FB681A62FB689B697B61FB681B6A3B61B7
:104360007B6923F470437B617B681B037A69134389
:104370007B613B6923F0A0033B61BB681B013A6989
:1043800013433B61FB687A699A61FB683A691A6278
:1043900000BF1C37BD4680BC704780B485B000AFFD
:1043A00078600B467B800023FB607B689B68FB602A
:1043B000FB6823F07003FB607B8843F007039BB22C
:1043C0001A46FB681343FB607B68FA689A6000BF7B
:1043D0001437BD4680BC704780B487B000AFF8602A
:1043E000B9607A603B6000237B61FB689B687B61FE
:1043F0007B6923F47F437B613B681A027B681A4325
:10440000BB6813437A6913437B61FB687A699A60DE
:1044100000BF1C37BD4680BC704780B483B000AF7E
:10442000786039607B6893F83C30012B01D102231E
:1044300032E07B68012283F83C207B68022283F80B
:104440003D207B681B685A687B681B6822F07002FD
:104450005A607B681B6859683B681A687B681B68F0
:104460000A435A607B681B689A687B681B6822F065
:1044700080029A607B681B6899683B685A687B6811
:104480001B680A439A607B68012283F83D207B68A1
:10449000002283F83C20002318460C37BD4680BC20
:1044A000704780B582B000AF78607B68002B01D187
:1044B00001233FE07B6893F83930DBB2002B06D153
:1044C0007B68002283F83820786801F097FB7B68CE
:1044D000242283F839207B681B68DA687B681B68B4
:1044E00022F40052DA60786800F05EFA7B681B689C
:1044F0001A697B681B6822F490421A617B681B680A
:104500005A697B681B6822F02A025A617B681B6823
:10451000DA687B681B6842F40052DA607B6800222C
:10452000DA637B68202283F839207B68202283F8B5
:104530003A20002318460837BD4680BD80B588B0B4
:1045400000AF78607B681B681B68FB617B681B6839
:10455000DB68BB617B681B685B697B6100233B6137
:104560000023FB60FB6903F00F033B613B69002BF9
:104570000DD1FB6903F02003002B08D0BB6903F0C9
:104580002003002B03D0786800F08DF9CCE03B6964
:10459000002B00F0AB807B6903F00103002B05D1F9
:1045A000BB6903F49073002B00F0A080FB6903F05B
:1045B0000103002B0AD0BB6903F48073002B05D0E4
:1045C0007B68DB6B43F001027B68DA63FB6903F015
:1045D0000403002B0AD07B6903F00103002B05D0F4
:1045E0007B68DB6B43F002027B68DA63FB6903F0F4
:1045F0000203002B0AD07B6903F00103002B05D0D6
:104600007B68DB6B43F004027B68DA63FB6903F0D1
:104610000803002B0AD07B6903F00103002B05D0AF
:104620007B68DB6B43F008027B68DA637B68DB6BDB
:10463000002B78D0FB6903F02003002B07D0BB6967
:1046400003F02003002B02D0786800F02CF97B687F
:104650001B685B6903F04003002B14BF0123002398
:10466000DBB2FB607B68DB6B03F00803002B02D13D
:10467000FB68002B31D0786800F077F87B681B6806
:104680005B6903F04003002B23D07B681B685A69E9
:104690007B681B6822F040025A617B685B6B002BD1
:1046A00013D07B685B6B224A5A637B685B6B18464E
:1046B000FCF756FB0346002B16D07B685B6B5B6BED
:1046C0007A68526B104698470EE0786800F044F81C
:1046D0000AE0786800F040F806E0786800F03CF8FE
:1046E0007B680022DA631EE000BF1CE0FB6903F078
:1046F0008003002B08D0BB6903F08003002B03D09C
:10470000786800F063F80FE0FB6903F04003002BCA
:104710000AD0BB6903F04003002B05D0786800F095
:10472000AAF800BF00E000BF2037BD4680BD00BF33
:10473000A547000880B483B000AF786000BF0C3795
:10474000BD4680BC704780B483B000AF786000BFC6
:104750000C37BD4680BC704780B483B000AF786032
:1047600000BF0C37BD4680BC704780B483B000AF3B
:1047700078607B681B68DA687B681B6822F490723B
:10478000DA607B681B685A697B681B6822F001024B
:104790005A617B68202283F83A2000BF0C37BD465F
:1047A00080BC704780B584B000AF78607B685B6A7E
:1047B000FB60FB680022DA85FB680022DA84F86877
:1047C000FFF7CAFF00BF1037BD4680BD80B485B07B
:1047D00000AF78607B6893F83930DBB2212B44D18D
:1047E0007B689B68B3F5805F1AD17B681B6AFB60AE
:1047F000FB681B881A467B681B68C2F308025A6074
:104800007B681B69002B05D17B681B6A9A1C7B683F
:104810001A620EE07B681B6A5A1C7B681A6208E009
:104820007B681B6A591C7A6811621A787B681B685E
:104830005A607B68DB8C9BB2013B9BB27A6819465D
:10484000D184002B0FD17B681B68DA687B681B68FA
:1048500022F08002DA607B681B68DA687B681B687C
:1048600042F04002DA60002300E0022318461437C9
:10487000BD4680BC704780B582B000AF78607B6871
:104880001B68DA687B681B6822F04002DA607B688C
:10489000202283F839207868FFF74CFF0023184660
:1048A0000837BD4680BD80B584B000AF78607B68B6
:1048B00093F83A30DBB2222B71D17B689B68B3F559
:1048C000805F23D17B689B6AFB607B681B69002B40
:1048D0000ED17B681B685B689BB2C3F308039AB276
:1048E000FB681A807B689B6A9A1C7B689A6229E045
:1048F0007B681B685B689BB2DBB29AB2FB681A806C
:104900007B689B6A5A1C7B689A621BE07B681B6908
:10491000002B0AD17B681B6858687B689B6A591C0E
:104920007A689162C2B21A700CE07B681B685B689F
:10493000DAB27B689B6A581C7968886202F07F0251
:10494000D2B21A707B68DB8D9BB2013B9BB27A6856
:104950001946D185002B20D17B681B68DA687B68FB
:104960001B6822F02002DA607B681B68DA687B68CB
:104970001B6822F48072DA607B681B685A697B6866
:104980001B6822F001025A617B68202283F83A20DA
:104990007868FFF7D8FE002302E0002300E002233E
:1049A00018461037BD4680BDB0B584B000AF786002
:1049B0000023FB607B681B681B6923F440517B6804
:1049C000DA687B681B680A431A617B689A687B68AF
:1049D0001B691A437B685B691343FA681343FB60E6
:1049E0007B681B68DB6823F4B05323F00C037A6800
:1049F0001268F9680B43D3607B681B685B6923F41A
:104A000040717B689A697B681B680A435A617B68BE
:104A10001B686F4A93426BD1FFF708F802461346B2
:104A20009B0013449A001A447B685B689B00B2FBAE
:104A3000F3F3684AA2FB03235B091C01FEF7F6FFB0
:104A4000024613469B0013449A001A447B685B6835
:104A50009B00B2FBF3F5FEF7E9FF024613469B000D
:104A600013449A001A447B685B689B00B2FBF3F323
:104A7000584AA2FB03235B09642202FB03F3EB1AEF
:104A80001B013233534AA2FB03235B0903F0F003FB
:104A90001C44FEF7CBFF024613469B0013449A00CA
:104AA0001A447B685B689B00B2FBF3F5FEF7BEFF20
:104AB000024613469B0013449A001A447B685B68C5
:104AC0009B00B2FBF3F3434AA2FB03235B0964227E
:104AD00002FB03F3EB1A1B0132333E4AA2FB032312
:104AE0005B0903F00F027B681B6822449A606AE04E
:104AF000FEF788FF024613469B0013449A001A44AF
:104B00007B685B689B00B2FBF3F3324AA2FB032392
:104B10005B091C01FEF776FF024613469B00134417
:104B20009A001A447B685B689B00B2FBF3F5FEF7C2
:104B300069FF024613469B0013449A001A447B689F
:104B40005B689B00B2FBF3F3224AA2FB03235B09E1
:104B5000642202FB03F3EB1A1B0132331D4AA2FB52
:104B600003235B0903F0F0031C44FEF74BFF0246EE
:104B700013469B0013449A001A447B685B689B00B1
:104B8000B2FBF3F5FEF73EFF024613469B001344CB
:104B90009A001A447B685B689B00B2FBF3F30D4AF2
:104BA000A2FB03235B09642202FB03F3EB1A1B0144
:104BB0003233084AA2FB03235B0903F00F027B6830
:104BC0001B6822449A6000BF1037BD46B0BD00BFCD
:104BD000003801401F85EB5180B483B000AF03461D
:104BE000FB80044B01221A7000BF0C37BD4680BC0D
:104BF000704700BFF801002080B582B000AF194AAD
:104C00003B4692E803001860043319705A2000F004
:104C1000C4FD082000F06DFE082000F09DFD052079
:104C200000F0E4FD3B461946062000F0EFFD3B4650
:104C30001946002000F0EAFD062000F03FFE0A21A0
:104C4000002000F0B8FD002000F06EFE002000F013
:104C500062FD00F0AFFE022000F03EFD00BF08370D
:104C6000BD4680BDCC78000880B584B000AF7860C8
:104C70000B46FB70FF23BB60002210211E48FCF78F
:104C800043FAFB781946786800F0A9FE012210214A
:104C90001948FCF739FA00F064FE0346FB73FB7B0E
:104CA00003F03003002B05D1BB685A1EBA60002BFD
:104CB000F1D100E000BF002210210F48FCF724FAD8
:104CC000BB68002B01D1022312E000F073FEFB7BD6
:104CD00003F01003002B01D0032309E0FB7B03F05A
:104CE0002003002B01D0012302E000F05BFE002333
:104CF00018461037BD4680BD0008014080B5ADF5AF
:104D0000067D00AF0023C7F810320023C7F80C322D
:104D1000FBF7BAFE00F094F800F0B8F900F0D6F80E
:104D200000F002F900F036F900F086F93B1D002290
:104D30001A703B1D1F225A703B1D01229A703B1DA9
:104D40000222DA703B1D1A683549364800F094FAA1
:104D5000344800F0E1FA0121324800F0E8FB324B20
:104D600000225A623148FFF757F90023C7F814327E
:104D7000FFF742FF2E4B1B78002BFBD02C4B002261
:104D80001A70FB1C00221A70FB1C1946254800F003
:104D9000E7FB0346002B07D1FB1C1B78012B03D13B
:104DA0002449204800F07CFB06212248FFF75CFFE5
:104DB00003461A46204B1A7000F0DBFD034687F8C5
:104DC0000B3297F80B321B0987F80A3297F80B322F
:104DD00003F00F0387F80932174B1B78022B0ED014
:104DE000032B02D0012B0CD00CE097F80A32D7F835
:104DF00014221344C7F8143200F0C3FD02E000BFD0
:104E000000E000BF4FF400510C48FCF795F9064B49
:104E10005B6AC7F81032044B00225A62AAE700BF4F
:104E200010020020AC020020002C0140B40200203F
:104E3000F8010020640200200C0200200010014054
:104E400080B590B000AF07F1180328220021184662
:104E500000F0ECFF3B1D00221A605A609A60DA6095
:104E60001A610123BB614FF48033FB6100233B6275
:104E70000123BB6202237B634FF48033BB634FF497
:104E8000E013FB6307F118031846FEF7DFF903464A
:104E9000002B01D000F07CF90F237B600223BB6064
:104EA0000023FB604FF480633B6100237B613B1D6B
:104EB00002211846FEF72EFC0346002B01D000F01D
:104EC00067F900BF4037BD4680BD000080B500AF28
:104ED000124B134A1A60114B124A5A600F4B0022B0
:104EE0009A600E4B0022DA600C4B4FF480421A613C
:104EF0000A4B00225A61094B00229A61074B00229B
:104F0000DA61064B00221A620448FCF73FF90346B7
:104F1000002B01D000F03CF900BF80BD1002002042
:104F200000540040801A060080B500AF174B184AA5
:104F30001A60164B4FF482725A60144B00229A602A
:104F4000124B0022DA60114B00221A610F4B002233
:104F50005A610E4B4FF400729A610C4B0822DA61D1
:104F60000A4B00221A62094B00225A62074B0022A8
:104F70009A62064B0A22DA620448FEF7BDFF034636
:104F8000002B01D000F004F900BF80BDF402002026
:104F90000030014080B586B000AF07F10803002261
:104FA0001A605A609A60DA603B4600221A605A60C2
:104FB0001F4B204A1A601E4B40F2CF225A601C4BF6
:104FC00000229A601A4B4FF6FF72DA60184B0022EB
:104FD0001A61174B00225A61154B00229A6114483E
:104FE000FEF7EFFF0346002B01D000F0D1F84FF49D
:104FF0008053BB6007F1080319460D48FFF726F8F8
:105000000346002B01D000F0C3F800233B600023CF
:105010007B603B4619460648FFF7FFF90346002B25
:1050200001D000F0B5F800BF1837BD4680BD00BF05
:10503000B4020020002C014080B500AF114B124A91
:105040001A60104B4FF461225A600E4B00229A6096
:105050000C4B0022DA600B4B00221A61094B0C2228
:105060005A61084B00229A61064B0022DA6105481A
:10507000FFF717FA0346002B01D000F089F800BFB4
:1050800080BD00BF6C0200200038014080B588B0B0
:1050900000AF07F1100300221A605A609A60DA60CC
:1050A000374B9B69364A43F010039361344B9B693D
:1050B00003F01003FB60FB68314B9B69304A43F0FF
:1050C000200393612E4B9B6903F02003BB60BB68F8
:1050D0002B4B9B692A4A43F004039361284B9B693D
:1050E00003F004037B607B68254B9B69244A43F0F3
:1050F00008039361224B9B6903F008033B603B6804
:1051000000224FF400511F48FBF7FEFF0022182138
:105110001D48FBF7F9FF4FF400533B6101237B610E
:105120000023BB610223FB6107F1100319461548F8
:10513000FBF78CFE01233B61144B7B610023BB61B9
:1051400007F1100319461048FBF780FE18233B6156
:1051500001237B610123BB610223FB6107F1100383
:1051600019460948FBF772FE002200210620FBF7D2
:10517000C0FD0620FBF7D9FD00BF2037BD4680BD2E
:105180000010024000100140000801400000111012
:1051900080B400AF00BFBD4680BC704780B584B00E
:1051A00000AF78603960FBF7C7FCF86009E07B6806
:1051B0001B681846FCF798FD0346202B01D10023FD
:1051C00008E0FBF7B9FC0246FB68D31A3A689A423A
:1051D000EDD2012318461037BD4680BD80B586B09C
:1051E00002AFF860B9607A603B603968F868FFF731
:1051F000D5FF0346002B01D0012312E0FB6818689D
:10520000FB681B7999B27B689AB23B68009313469E
:10521000BA68FCF7BFF80346002B01D0012300E079
:10522000002318461037BD4680BD80B586B002AF5A
:10523000F860B9607A603B603968F868FFF7AEFFE4
:105240000346002B01D0012312E0FB681868FB68BD
:105250001B7999B27B689AB23B6800931346BA688F
:10526000FCF7A6F90346002B01D0012300E0002340
:1052700018461037BD4680BD80B586B000AFF860D7
:10528000B9607A60FB68002B02D0BB68002B01D1AB
:1052900001233DE0FB68BA681A603B7963F02F0395
:1052A000DAB2FB681A7175237B7507F115014FF4AB
:1052B0007A730122F868FFF791FF0346FB75FB7DC7
:1052C000002B01D0FB7D23E007F116014FF47A7328
:1052D0000122F868FFF7A9FF0346FB75FB7D002B51
:1052E00001D0FB7D14E0BB7D682B01D003230FE0D0
:1052F0007B791946F86800F026F8BB791946F868FA
:1053000000F03AF8FB791946F86800F07FF80023BE
:1053100018461837BD4680BD80B584B000AF7860B0
:105320006B233B7300237B7307F10C014FF47A73FB
:1053300002227868FFF752FF0346FB73FB7B184697
:105340001037BD4680BD80B584B000AF78600B4695
:10535000FB7019233B73FB787B7307F10C014FF44F
:105360007A7302227868FFF739FF0346FB73FB7BF1
:1053700018461037BD4680BD80B584B000AF786058
:105380000B46FB701C23BB7307F10E014FF47A73BD
:1053900001227868FFF722FF0346FB73FB7B002B9B
:1053A00001D0FB7B2EE007F10D014FF47A7301224F
:1053B0007868FFF73AFF0346FB73FB7B002B01D0B5
:1053C000FB7B1FE07B7B5BB223F018035AB2FB78B8
:1053D000DB005BB213435BB2DBB27B731C233B721B
:1053E0007B7B7B7207F108014FF47A7302227868A5
:1053F000FFF7F4FE0346FB73FB7B002B01D0FB7B26
:1054000000E0002318461037BD4680BD80B584B04B
:1054100000AF78600B46FB701B23BB7307F10E01D6
:105420004FF47A7301227868FFF7D8FE0346FB73C6
:10543000FB7B002B01D0FB7B2EE007F10D014FF42D
:105440007A7301227868FFF7F0FE0346FB73FB7B5B
:10545000002B01D0FB7B1FE07B7B5BB223F01803AA
:105460005AB2FB78DB005BB213435BB2DBB27B73F7
:105470001B233B727B7B7B7207F108014FF47A732D
:1054800002227868FFF7AAFE0346FB73FB7B002B22
:1054900001D0FB7B00E0002318461037BD4680BDDD
:1054A00080B584B000AF786039603B23BB7307F1EF
:1054B0000E014FF47A7301227868FFF78FFE0346DE
:1054C000FB73FB7B002B01D0FB7B2CE007F1080179
:1054D0004FF47A7306227868FFF7A7FE0346FB7342
:1054E000FB7B002B01D0FB7B1DE03B7A1B021AB239
:1054F0007B7A1BB213431AB23B681A80BB7A1B0239
:1055000019B2FB7A1AB23B6802330A4312B21A800C
:105510003B7B1B0219B27B7B1AB23B6804330A4304
:1055200012B21A80002318461037BD4680BD80B5E0
:1055300084B000AF78600B46FB7038233B73FB7878
:105540007B7307F10C014FF47A7302227868FFF73E
:1055500045FE0346FB73FB7B18461037BD4680BDF6
:1055600080B584B000AF786039603A23BB73002304
:105570007B7307F10E014FF47A7301227868FFF70D
:105580002DFE0346FB73FB7B002B01D0FB7B12E05F
:1055900007F10D014FF47A7301227868FFF745FE99
:1055A0000346FB73FB7B002B01D0FB7B03E07A7B84
:1055B0003B681A70FB7B18461037BD4680BD000063
:1055C00080B584B000AF0346FB71002208210C486F
:1055D000FBF79AFDFB7903F01F03DBB2184600F0DE
:1055E0000FFAFF2000F00CFA0346FB73012208219A
:1055F0000348FBF789FDFB7B18461037BD4680BD8D
:105600000008014080B582B000AF03460A46FB7136
:105610001346BB71002208211948FBF775FDFB7981
:105620001F2B10D897F9073003F01F035BB243F02C
:1056300020035BB2DBB2184600F0E2F9BB791846F2
:1056400000F0DEF913E0FB79184600F0D9F9FB7998
:10565000E12B0CD0FB79E22B09D0FB79E32B06D0B0
:10566000FB79FF2B03D0BB79184600F0C9F9012262
:1056700008210348FBF748FD00BF0837BD4680BD41
:105680000008014080B582B000AF03463960FB716D
:105690001346BB71002208210E48FBF735FDFB794C
:1056A000184600F0ADF906E03B685A1C3A601B78DA
:1056B000184600F0A5F9BB795A1EBA71002BF3D138
:1056C000012208210348FBF71FFD00BF0837BD4634
:1056D00080BD00BF0008014080B584B000AF034624
:1056E000FB710020FFF76CFF0346FB73FB79022B75
:1056F00004D1FB7B43F00203FB7303E0FB7B23F04D
:105700000203FB73FB7B19460020FFF77BFF00BF02
:105710001037BD4680BD80B584B000AF0346FB7135
:105720000020FFF74DFF0346FB73FB7B23F00103D3
:10573000FB7397F9073003F001035AB297F90F3062
:1057400013435BB2FB73FB7B19460020FFF75AFF44
:1057500000BF1037BD4680BD80B584B000AF0346A2
:10576000FB710020FFF72CFF0346FB73FB7B23F04C
:105770000C03FB7397F9073003F00C035AB297F947
:105780000F3013435BB2FB73FB7B19460020FFF71E
:1057900039FF00BF1037BD4680BD80B582B000AF75
:1057A0000346FB71FB7919460520FFF72BFF00BF6D
:1057B0000837BD4680BD80B582B000AF03460A46BB
:1057C000FB711346BB71FB791B015AB297F9063086
:1057D00003F00F035BB213435BB2DBB21946042044
:1057E000FFF710FF00BF0837BD4680BD80B582B00F
:1057F00000AF0346FB71FB79023BDBB21946032085
:10580000FFF700FF00BF0837BD4680BD80B584B0FC
:1058100000AF03463960FB71FB79062B44D801A227
:1058200052F823F0415800084158000895580008E4
:1058300095580008955800089558000841580008E8
:105840000320FFF7BDFE03460133FB73FB7B3A6881
:1058500013443B60002208211648FBF755FCFB79F6
:10586000154AD35C43F02003DBB2184600F0C8F8B9
:105870003B685A1E3A601B78184600F0C1F8FB7B63
:105880005A1EFA73002BF3D1012208210948FBF7B5
:105890003BFC0AE0FB79084AD25C3B681B7819465E
:1058A0001046FFF7AFFE00E000BF00BF1037BD4657
:1058B00080BD00BF00080140DC78000880B584B0DE
:1058C00000AF0346FB710620FFF77AFE0346FB7329
:1058D000FB7B23F00603FB73FA7BFB791343FB731B
:1058E000FB7B19460620FFF78DFE00BF1037BD4633
:1058F00080BD80B584B000AF0346FB710620FFF782
:105900005FFE0346FB73FB7B23F02803FB73FA7BEC
:10591000FB791343FB73FB7B19460620FFF772FEEE
:1059200000BF1037BD4680BD80B584B000AF0346D0
:10593000FB710120FFF744FE0346FB73FB79012254
:1059400002FA03F35AB297F90F3013435BB2FB73B9
:10595000FB7B19460120FFF755FE00BF1037BD46FF
:1059600080BD80B500AF0720FFF72AFE034618462A
:1059700080BD80B500AF0820FFF722FE0346184621
:1059800080BD80B582B000AF0520FFF719FE034649
:10599000FB71FB7919460520FFF734FE00BF08377D
:1059A000BD4680BD80B500AFFF21E120FFF72AFE94
:1059B00000BF80BD80B582B000AF0720FFF700FEBA
:1059C0000346FB71FB7943F07003FB71FB791946C9
:1059D0000720FFF717FE00BF0837BD4680BD80B522
:1059E00082B000AF78600B46FB70FB781A4679688E
:1059F000A020FFF747FE00BF0837BD4680BD00006E
:105A000080B586B002AF0346FB7100BF0A48FEF7BF
:105A1000DFF90346012BF9D107F10F02F91D4FF40D
:105A20007A73009301230448FEF732F8FB7B184693
:105A30001037BD4680BD00BFF402002080B485B0A1
:105A400000AF154B9B69144A43F001039361124B5D
:105A50009B6903F00103BB60BB680F4BDB690E4A17
:105A600043F08053D3610C4BDB6903F080537B60C0
:105A70007B680A4B5B68FB60FB6823F0E063FB60BC
:105A8000FB6843F00073FB60044AFB68536000BF8F
:105A90001437BD4680BC7047001002400000014032
:105AA00080B588B000AF786007F1100300221A605B
:105AB0005A609A60DA607B681B68194A93422BD15E
:105AC000184B9B69174A43F008039361154B9B6978
:105AD00003F00803FB60FB68C0233B6112237B617A
