:020000040800F2
:1000000000500020B52E0008412E0008432E0008A5
:10001000452E0008472E0008492E00080000000069
:100020000000000000000000000000004B2E00084F
:100030004D2E0008000000004F2E0008512E000831
:10004000FD2E0008FD2E0008FD2E0008FD2E0008E4
:10005000FD2E0008FD2E0008FD2E0008FD2E0008D4
:10006000FD2E0008FD2E0008FD2E0008FD2E0008C4
:10007000FD2E0008FD2E0008FD2E0008FD2E0008B4
:10008000FD2E0008FD2E0008FD2E0008FD2E0008A4
:10009000FD2E0008FD2E0008FD2E0008FD2E000894
:1000A000FD2E0008FD2E0008FD2E0008FD2E000884
:1000B000FD2E0008FD2E0008FD2E0008592E000818
:1000C000FD2E0008FD2E0008FD2E0008FD2E000864
:1000D000FD2E0008FD2E0008FD2E0008FD2E000854
:1000E000FD2E0008FD2E0008FD2E00080000000077
:1000F0000000000000000000000000000000000000
:0C01000000000000000000005FF808F1A3
:1001100010B5054C237833B9044B13B10448AFF341
:1001200000800123237010BDDC01002000000000CE
:10013000A449000808B5034B1BB103490348AFF3BA
:10014000008008BD00000000E0010020A449000874
:10015000034613F8012B002AFBD1181A0138704707
:1001600081F0004102E000BF83F0004330B54FEA68
:1001700041044FEA430594EA050F08BF90EA020FD5
:100180001FBF54EA000C55EA020C7FEA645C7FEA68
:10019000655C00F0E2804FEA5454D4EB5555B8BF8B
:1001A0006D420CDD2C4480EA020281EA030382EAFC
:1001B000000083EA010180EA020281EA0303362D8E
:1001C00088BF30BD11F0004F4FEA01314FF4801C61
:1001D0004CEA113102D0404261EB410113F0004F73
:1001E0004FEA03334CEA133302D0524263EB43032A
:1001F00094EA050F00F0A780A4F10104D5F1200EC8
:100200000DDB02FA0EFC22FA05F2801841F1000122
:1002100003FA0EF2801843FA05F359410EE0A5F1F6
:1002200020050EF1200E012A03FA0EFC28BF4CF027
:10023000020C43FA05F3C01851EBE37101F00045DD
:1002400007D54FF0000EDCF1000C7EEB00006EEBEA
:100250000101B1F5801F1BD3B1F5001F0CD3490874
:100260005FEA30004FEA3C0C04F101044FEA4452CB
:1002700012F5800F80F09A80BCF1004F08BF5FEA52
:10028000500C50F1000041EB045141EA050130BD32
:100290005FEA4C0C404141EB010111F4801FA4F1D5
:1002A0000104E9D191F0000F04BF01460020B1FA2A
:1002B00081F308BF2033A3F10B03B3F120020CDA62
:1002C0000C3208DD02F1140CC2F10C0201FA0CF040
:1002D00021FA02F10CE002F11402D8BFC2F1200CA5
:1002E00001FA02F120FA0CFCDCBF41EA0C0190405B
:1002F000E41AA2BF01EB0451294330BD6FEA0404A4
:100300001F3C1CDA0C340EDC04F11404C4F120028E
:1003100020FA04F001FA02F340EA030021FA04F3A0
:1003200045EA030130BDC4F10C04C4F1200220FAF7
:1003300002F001FA04F340EA0300294630BD21FA35
:1003400004F0294630BD94F0000F83F4801306BFFB
:1003500081F480110134013D4EE77FEA645C18BFEF
:100360007FEA655C29D094EA050F08BF90EA020F86
:1003700005D054EA000C04BF1946104630BD91EA7E
:10038000030F1EBF0021002030BD5FEA545C05D181
:100390004000494128BF41F0004130BD14F58004C0
:1003A0003CBF01F5801130BD01F0004545F0FE4134
:1003B00041F470014FF0000030BD7FEA645C1ABF69
:1003C000194610467FEA655C1CBF0B46024650EAA0
:1003D000013406BF52EA033591EA030F41F40021CC
:1003E00030BD00BF90F0000F04BF0021704730B552
:1003F0004FF4806404F132044FF000054FF0000127
:1004000050E700BF90F0000F04BF0021704730B5E7
:100410004FF4806404F1320410F0004548BF4042BC
:100420004FF000013EE700BF42004FEAE2014FEA11
:1004300031014FEA02701FBF12F07F4393F07F4FEC
:1004400081F06051704732F07F4208BF704793F0EF
:100450007F4F04BF41F40021704730B54FF4607402
:1004600001F0004521F000411CE700BF50EA010205
:1004700008BF704730B54FF000050AE050EA0102AE
:1004800008BF704730B511F0004502D5404261EB1E
:1004900041014FF4806404F132045FEA915C3FF45F
:1004A000D8AE4FF003025FEADC0C18BF03325FEAFC
:1004B000DC0C18BF033202EBDC02C2F1200300FAAD
:1004C00003FC20FA02F001FA03FE40EA0E0021FAD2
:1004D00002F11444BDE600BF70B54FF0FF0C4CF4C0
:1004E000E06C1CEA11541DBF1CEA135594EA0C0F72
:1004F00095EA0C0F00F0DEF82C4481EA030621EAAD
:100500004C5123EA4C5350EA013518BF52EA0335E7
:1005100041F4801143F4801338D0A0FB02CE4FF099
:100520000005E1FB02E506F00042E0FB03E54FF0C9
:100530000006E1FB03569CF0000F18BF4EF0010EC1
:10054000A4F1FF04B6F5007F64F5407404D25FEABD
:100550004E0E6D4146EB060642EAC62141EA555170
:100560004FEAC52040EA5E504FEACE2EB4F1FD0CB2
:1005700088BFBCF5E06F1ED8BEF1004F08BF5FEA30
:10058000500E50F1000041EB045170BD06F00046E2
:1005900046EA010140EA020081EA0301B4EB5C048F
:1005A000C2BFD4EB0C0541EA045170BD41F4801187
:1005B0004FF0000E013C00F3AB8014F1360FDEBFAC
:1005C000002001F0004170BDC4F10004203C35DA88
:1005D0000C341BDC04F11404C4F1200500FA05F30B
:1005E00020FA04F001FA05F240EA020001F00042AC
:1005F00021F0004110EBD37021FA04F642EB060122
:100600005EEA430E08BF20EAD37070BDC4F10C044B
:10061000C4F1200500FA04F320FA05F001FA04F20F
:1006200040EA020001F0004110EBD37041F10001FB
:100630005EEA430E08BF20EAD37070BDC4F1200506
:1006400000FA05F24EEA020E20FA04F301FA05F26E
:1006500043EA020321FA04F001F0004121FA04F216
:1006600020EA020000EBD3705EEA430E08BF20EAE6
:10067000D37070BD94F0000F0FD101F00046400020
:1006800041EB010111F4801F08BF013CF7D041EAA2
:10069000060195F0000F18BF704703F000465200A6
:1006A00043EB030313F4801F08BF013DF7D043EA77
:1006B0000603704794EA0C0F0CEA135518BF95EA2D
:1006C0000C0F0CD050EA410618BF52EA4306D1D1B4
:1006D00081EA030101F000414FF0000070BD50EAD3
:1006E000410606BF1046194652EA430619D094EA5D
:1006F0000C0F02D150EA013613D195EA0C0F05D147
:1007000052EA03361CBF104619460AD181EA03019A
:1007100001F0004141F0FE4141F470014FF0000052
:1007200070BD41F0FE4141F4780170BD70B54FF0ED
:10073000FF0C4CF4E06C1CEA11541DBF1CEA13556D
:1007400094EA0C0F95EA0C0F00F0A7F8A4EB05044F
:1007500081EA030E52EA03354FEA013100F0888046
:100760004FEA03334FF0805545EA131343EA12630F
:100770004FEA022245EA111545EA10654FEA0026C4
:100780000EF000419D4208BF964244F1FD0404F57D
:10079000407402D25B084FEA3202B61A65EB0305D9
:1007A0005B084FEA32024FF480104FF4002CB6EB96
:1007B000020E75EB030E22BFB61A754640EA0C0016
:1007C0005B084FEA3202B6EB020E75EB030E22BF56
:1007D000B61A754640EA5C005B084FEA3202B6EB97
:1007E000020E75EB030E22BFB61A754640EA9C0056
:1007F0005B084FEA3202B6EB020E75EB030E22BF26
:10080000B61A754640EADC0055EA060E18D04FEAE3
:10081000051545EA16754FEA06164FEAC30343EA83
:1008200052734FEAC2025FEA1C1CC0D111F4801F50
:100830000BD141EA00014FF000004FF0004CB6E749
:1008400011F4801F04BF01430020B4F1FD0C88BFE8
:10085000BCF5E06F3FF6AFAEB5EB030C04BFB6EBF3
:10086000020C5FEA500C50F1000041EB045170BDE6
:100870000EF0004E4EEA113114EB5C04C2BFD4EB13
:100880000C0541EA045170BD41F480114FF0000E97
:10089000013C90E645EA060E8DE60CEA135594EA13
:1008A0000C0F08BF95EA0C0F3FF43BAF94EA0C0F16
:1008B0000AD150EA01347FF434AF95EA0C0F7FF48B
:1008C00025AF104619462CE795EA0C0F06D152EADF
:1008D00003353FF4FDAE1046194622E750EA4106C3
:1008E00018BF52EA43067FF4C5AE50EA41047FF4D4
:1008F0000DAF52EA43057FF4EBAE12E74FF0FF3C39
:1009000006E000BF4FF0010C02E000BF4FF0010C09
:100910004DF804CD4FEA410C7FEA6C5C4FEA430C82
:1009200018BF7FEA6C5C1BD001B050EA410C0CBFD1
:1009300052EA430C91EA030F02BF90EA020F002033
:10094000704710F1000F91EA030F58BF994208BF9A
:1009500090422CBFD8176FEAE37040F00100704757
:100960004FEA410C7FEA6C5C02D150EA013C07D1AE
:100970004FEA430C7FEA6C5CD6D152EA033CD3D0F9
:100980005DF8040B704700BF8446104662468C46F3
:100990001946634600E000BF01B5FFF7B7FF002826
:1009A00048BF10F1000F01BD4DF808EDFFF7F4FF4F
:1009B0000CBF012000205DF808FB00BF4DF808EDDA
:1009C000FFF7EAFF34BF012000205DF808FB00BFFD
:1009D0004DF808EDFFF7E0FF94BF012000205DF81F
:1009E00008FB00BF4DF808EDFFF7CEFF94BF0120D4
:1009F00000205DF808FB00BF4DF808EDFFF7C4FFCD
:100A000034BF012000205DF808FB00BF4FEA410C15
:100A10007FEA6C5C02D150EA013C0AD14FEA430CF8
:100A20007FEA6C5C02D152EA033C02D14FF0000035
:100A300070474FF0010070474FEA410212F5001273
:100A400015D211D56FF47873B3EB625212D94FEA15
:100A5000C12343F0004343EA505311F0004F23FAFF
:100A600002F018BF404270474FF00000704750EA54
:100A7000013005D111F0004008BF6FF00040704711
:100A80004FF00000704700BF10B504460E4B1878B9
:100A90004FF47A73B3FBF0F30C4A1068B0FBF3F039
:100AA00000F0A0F868B90F2C01D901200AE000225B
:100AB00021464FF0FF3000F055F8034B5C600020FA
:100AC00000E0012010BD00BF000000200800002051
:100AD00008B5074A136843F010031360032000F0C1
:100AE0002FF80020FFF7D0FF02F04EF9002008BDDC
:100AF00000200240034A1168034B1B780B4413602B
:100B0000704700BF0402002000000020014B18685D
:100B1000704700BF0402002038B50446FFF7F6FF17
:100B20000546B4F1FF3F02D0044B1B781C44FFF78D
:100B3000EDFF401BA042FAD338BD00BF00000020EB
:100B4000074AD36823F4E0631B041B0C000200F483
:100B5000E060184340F0BF6040F40030D060704760
:100B600000ED00E030B4174BDB68C3F30223C3F1A0
:100B70000704042C28BF04241D1D062D18D9033B8F
:100B80004FF0FF3505FA04F421EA0401994005FA13
:100B900003F322EA0303194300280BDB0901C9B25E
:100BA00000F1604000F5614080F8001330BC7047F0
:100BB0000023E5E700F00F000901C9B2024B195408
:100BC000F4E700BF00ED00E014ED00E000F01F02CC
:100BD000400901239340024A42F82030704700BF89
:100BE00000E100E00138B0F1807F0AD2064B586086
:100BF000064AF02182F823100020986007221A602C
:100C000070470120704700BF10E000E000ED00E0F9
:100C100008B590F82130022B03D004238363012010
:100C200008BD0268136823F00E031360026813689E
:100C300023F0010313600368194A934214D014325D
:100C400093421FD0143293421ED0143293421ED0CE
:100C5000143293421ED01432934202D04FF080726D
:100C600003E04FF4801200E001220E4B5A60012392
:100C700080F82130002380F82030436B6BB1984717
:100C80000020CDE71022F0E74FF48072EDE74FF43B
:100C90008052EAE74FF48032E7E70020C0E700BF68
:100CA0000800024000000240F0B482B00026354641
:100CB000A1E0002C59D0012C00D1CE68FF2B68D8C0
:100CC0008446FF2B68D8AC00DCF800200F27A74033
:100CD00022EA070206FA04F42243CCF800204A680C
:100CE00012F0805F00F086805E4A946944F001044F
:100CF0009461926902F001020192019AAC08A71C6A
:100D0000594A52F8272005F00307BF004FF00F0C97
:100D10000CFA07FC22EA0C0C544A904242D002F52D
:100D2000806290427FD002F5806290427DD002F5D1
:100D30008062904234D0042235E04D4FBC4214D042
:100D40000BD94C4FBC4210D007F58037BC420CD0B9
:100D5000A7F58017BC42B1D107E0A7F58017BC42C8
:100D600003D007F58037BC42A8D18C687CB1012C38
:100D700008D042610826A1E7CE6808369EE7CE6813
:100D80000C369BE70261082698E7002696E70426C2
:100D900094E700F1040C94E7A5F10804A40093E79C
:100DA000032200E00022BA4042EA0C0202342E4F35
:100DB00047F824204A6812F4803F38D02E4C22682D
:100DC0001A4322604A6812F4003F36D02A4C626807
:100DD0001A4362604A6812F4801F34D0264CA2681D
:100DE0001A43A2604A6812F4001F32D0224CE26813
:100DF0001343E36001350F2D31D80122AA400B685F
:100E000013409A42F6D14C68122CB8D095D8022CD7
:100E1000B2D07FF64EAF032CB7D0112C7FF44EAF7B
:100E2000CE6804364AE70122BDE70222BBE7124C36
:100E3000226822EA03022260C4E70F4C626822EAB9
:100E400003026260C6E70C4CA26822EA0302A260B9
:100E5000C8E7094CE26822EA0303E360CAE702B08C
:100E6000F0BC704700100240000001400008014043
:100E700000002110000031100004014012B90904E3
:100E80000161704701617047C3685940C160704794
:100E900090F83E30DBB2402B13D00369B3F5804F9E
:100EA0001ED0036D002B2DD0036D012B33D1436C6D
:100EB000C3F3C813026803F0060343F0F1031361A0
:100EC00029E0036D2BB9436C026803F0FE03136144
:100ED00021E0436C026843F00103DBB213611AE0C6
:100EE00090F83D30DBB2212B06D0436C026843F012
:100EF0000103DBB213610EE0436C026803F0FE03F2
:100F0000136108E0436CC3F3C813026803F00603DF
:100F100043F0F003136100207047436C0268DBB2BA
:100F200013610020704710B48DB090F83E30DAB2F3
:100F3000C16A046B90F83D30DBB2222B0BD000234A
:100F40000B9303685A690B929B690B930B9B0020D0
:100F50000DB010BC7047036D0BB9402A17D0036D5C
:100F60001BB90369B3F5404F19D0438D9BB2002BD9
:100F700025D1039303685A6903929A690392039AED
:100F80001A6842F400721A6000230365DFE70193D8
:100F900003685A6901929B690193019BD7E700237B
:100FA000029303685A6902929A690292029A1A6835
:100FB00042F480721A60036D01330365C7E7438D05
:100FC0009BB2012B1AD0438D9BB2022B6BD00268CF
:100FD000136843F48063136003685A6812F4006F67
:100FE00003D05A6842F480525A6000230A9303687F
:100FF0005A690A929B690A930A9BC5E711F5803FDB
:1010000016D004293DD008293BD0122C39D0C36A10
:10101000022B30D00268136823F48063136000232E
:10102000069303685A6906929B690693069BABE791
:101030000268136823F48063136003685A6812F42B
:10104000006F0CD01A6822F480621A6000230493A7
:1010500003685A6904929B690493049B94E70022F5
:1010600005925A6905929A690592059A1A6842F49E
:1010700000721A6088E70268136843F480631360A3
:10108000CDE70268136823F480631360002307939D
:1010900003685A6907929A690792079A1A6842F494
:1010A00000721A6070E7C36A022B1BD002681368D3
:1010B00043F4006313600023089303685A6908929D
:1010C0009A690892089A1A6822F480621A60036882
:1010D0005A6812F4006F3FF457AF5A6842F48052D6
:1010E0005A6051E70268136843F480631360002379
:1010F000099303685A6909929B690993099BE6E77A
:10110000438D9BB24BB1436A5A1C426202681B7802
:101110001361438D013B9BB2438500207047438D93
:101120009BB24BB103681A69436A591C41621A7039
:10113000438D013B9BB243850020704703685A6989
:1011400012F4806F0DD06FF480625A61042303643F
:1011500000230363202280F83D2080F83C300120EA
:10116000704700207047F8B506460C4617461D46E6
:101170001EE02DB1FFF7CAFC069BC01AA84217D982
:1011800000233363202286F83D2086F83E3086F81F
:101190003C3003201AE033685B6924EA03039BB206
:1011A000B3FA83F35B099F420FD1B5F1FF3FE0D162
:1011B000C4F30743012BEED033689B6924EA030391
:1011C0009BB2B3FA83F35B09EDE70020F8BDF8B5F5
:1011D00004460D4616461F4632E01A6842F4007275
:1011E0001A6023686FF480625A6104232364002329
:1011F0002363202284F83D2084F83C3001202DE038
:1012000026B1FFF783FCC01BB04219D9002323632A
:10121000202284F83D2084F83C3003201EE023681F
:101220005B6925EA03039BB2003318BF0123A3B116
:1012300023685A6912F4806FCFD1B6F1FF3FDFD136
:10124000C5F30743012BEAD023689B6925EA030312
:101250009BB2003318BF0123E9E70020F8BD00006E
:10126000F0B583B004460D4616461F46C36A042BEC
:101270000DD0012B0BD013F5803F08D0036B122B40
:101280000AD10268136843F48073136004E0226893
:10129000136843F4807313600097334600224FF0C5
:1012A00001112046FFF75FFF58BB2369B3F5804F5C
:1012B00010D1236805F0FE051D613B4632461549F5
:1012C0002046FFF784FF0346E0B1236C042B1ED1B8
:1012D000012317E0EB11226803F0060343F0F0034B
:1012E00013613B4632460C492046FFF770FF20B1A0
:1012F000236C042B09D1012304E02368EDB21D61A6
:10130000DBE70323184603B0F0BD0323FAE703230A
:10131000F8E700BF02000100080001002DE9F041DC
:1013200084B004460D4616461F46C26A01680B6823
:1013300043F480630B60042A0DD0012A0BD012F510
:10134000803F08D0036B112B0AD10268136843F465
:101350008073136004E02268136843F480731360A1
:101360000097334600224FF001112046FFF7FBFEA5
:10137000002852D12369B3F5804F12D1236845F07C
:101380000105EDB21D613B4632462A492046FFF772
:101390001EFF0346002841D0236C042B48D10123B3
:1013A0003CE04FEAE51808F00608236848F0F00230
:1013B0001A613B46324620492046FFF708FF20B11C
:1013C000236C042B2ED1012328E02368EDB21D618C
:1013D0003B46324617492046FFF7F9FE20B1236C01
:1013E000042B21D1012319E00022039223685969BB
:1013F0000391996903910399196841F48071196007
:10140000009733464FF001112046FFF7ACFE68B954
:10141000226848F0F1031361B5E70323184604B0CE
:10142000BDE8F0810323F9E70323F7E70323F5E79A
:101430000323F3E7020001000800010070B5044631
:101440000D46164623685B6913F0800F19D12046BC
:10145000FFF774FEB8B9B5F1FF3FF3D025B1FFF740
:1014600055FB801BA842EDD9236C43F02003236475
:1014700000232363202284F83D2084F83C3003209D
:1014800000E0002070BD0120FCE770B504460D4669
:10149000164623685B6913F0040F19D12046FFF745
:1014A0004DFEB8B9B5F1FF3FF3D025B1FFF72EFBE4
:1014B000801BA842EDD9236C43F020032364002352
:1014C0002363202284F83D2084F83C30032000E090
:1014D000002070BD0120FCE770B505460C4616469D
:1014E0002B685A6912F0400F22D15A6912F0100F7E
:1014F00011D124B1FFF70AFB801BA042F0D92B6C5D
:1015000043F020032B64202385F83D30002385F829
:101510003C30032070BD6FF010025A6100232B6431
:101520002B63202285F83D2085F83C300120F1E72F
:101530000020EFE7002800F0A28038B5044690F8BC
:101540003D30002B4FD0242384F83D3022681368AF
:1015500023F00103136001F031FA62684A4B9A42AA
:1015600046D84A4B98428CBF00230123002B40F001
:101570008880474BA3FB00239B0C22685360616863
:10158000414A91423AD801332268136261683E4B66
:1015900099423DD8431E4900B3FBF1F30133C3F335
:1015A0000B03042B38BF04232268D361E369216A4B
:1015B00022680B4313602369E16822680B43936040
:1015C0006369A16922680B43D3602268136843F002
:1015D0000103136000202064202384F83D30206341
:1015E00084F83E0038BD80F83C3001F0EFFBAAE7FC
:1015F000284B98428CBF00230123B7E74FF4967223
:1016000002FB03F3244AA2FB03239B090133BBE73C
:10161000A368BBB9421E01EB4105B2FBF5F20132F2
:10162000C2F30B02B2FA82F2520932BBC3B90138DB
:1016300001EB4103B0FBF3F30133C3F30B0343F4BA
:101640000043B1E7421E01EB810505EB8505B2FBC6
:10165000F5F20132C2F30B02B2FA82F25209E4E768
:10166000013801EB810303EB8303B0FBF3F3013398
:10167000C3F30B0343F4404396E7012394E70120AF
:1016800070470120AEE700BFA08601007F841E00E6
:1016900083DE1B43FF083D00D34D62102DE9F0416E
:1016A00084B004460E4690461F46FFF72FFA94F882
:1016B0003D30DBB2202B04D00226304604B0BDE81A
:1016C000F081054600901923012254492046FFF776
:1016D0004AFD002840F0998094F83C30012B00F03E
:1016E0009680012384F83C3023681A6812F0010FB9
:1016F00003D11A6842F001021A602268136823F4C9
:1017000000631360212384F83D30102384F83E30B9
:1017100000232364C4F824806785A3F58033E36243
:10172000638D23852B460A9A31462046FFF798FDA4
:10173000064660B1236C042B04D1002384F83C30AE
:101740000126BAE7002384F83C300326B5E70023DE
:10175000039323685A6903929B690393039B10E0E8
:10176000236C042B55D12268136843F40073136073
:101770000126A2E72A460A992046FFF786FE00289E
:101780002BD1238D002B32D02A460A992046FFF711
:1017900055FE0028E4D1636A5A1C626222681B78F5
:1017A0001361638D013B9BB26385238D013B9BB22B
:1017B00023852268516911F0040FDBD0002BD9D0AA
:1017C000636A591C61621B781361638D013B9BB294
:1017D0006385238D013B2385CCE7236C042B1AD131
:1017E0002268136843F400731360012665E72268DA
:1017F000136843F400731360202384F83D30002302
:1018000084F83E3084F83C3057E7022655E702263C
:1018100053E7032651E703264FE700BF02001000FD
:101820002DE9F04186B004460E4690461F46FFF76C
:101830006DF994F83D30DBB2202B04D002263046FF
:1018400006B0BDE8F08105460090192301228F49BA
:101850002046FFF788FC002840F0518194F83C3086
:10186000012B00F04E81012384F83C3023681A6874
:1018700012F0010F03D11A6842F001021A602268C7
:10188000136823F400631360222384F83D3010238F
:1018900084F83E3000232364C4F824806785A3F5D0
:1018A0008033E362638D23852B460C9A31462046B4
:1018B000FFF734FD064660B1236C042B04D10023EE
:1018C00084F83C300126BAE7002384F83C30032634
:1018D000B5E7238D5BB9029323685A6902929A692E
:1018E0000292029A1A6842F400721A607FE0012B99
:1018F0000FD0022B21D02268136843F48063136059
:101900000023059323685A6905929B690593059BFB
:101910006DE02268136823F48063136072B60023BD
:10192000039323685A6903929A690392039A1A6887
:1019300042F400721A6062B659E02268136843F4F8
:101940000063136072B60023049323685A690492FB
:101950009A690492049A1A6822F480621A6062B644
:1019600045E02A460C992046FFF7B6FD68B9236882
:101970001A69636A591C61621A70238D013B2385C1
:10198000638D013B9BB2638531E0236C202B01D03A
:10199000012654E7032652E700950C9B00223C49A0
:1019A0002046FFF7E0FB002840F0AD8072B62268C9
:1019B000136843F40073136023681A69636A591C3F
:1019C00061621A70238D013B2385638D013B9BB2BD
:1019D000638562B623681A69636A591C61621A706A
:1019E000238D013B2385638D013B9BB26385238D52
:1019F000002B7BD0032B4DD8012BB2D0022BCBD0A8
:101A000000950C9B002222492046FFF7ACFB0028E2
:101A10007BD12268136823F48063136072B6236855
:101A20001A69636A591C61621A70238D013B238510
:101A3000638D013B9BB2638500950C9B002214498A
:101A40002046FFF790FB002861D12268136843F419
:101A50000073136023681A69636A591C61621A7003
:101A6000238D013B2385638D013B9BB2638562B669
:101A700023681A69636A591C61621A70238D013BDD
:101A80002385638D013B9BB26385B0E702001000A4
:101A9000040001002A460C992046FFF71DFDF0B90D
:101AA00023681A69636A591C61621A70238D013BAD
:101AB0002385638D013B9BB2638523685A6912F0CD
:101AC000040F94D01A69636A591C61621A70238DDD
:101AD000013B2385638D013B9BB2638587E7236CC4
:101AE000202B01D00126AAE60326A8E6202384F8AD
:101AF0003D30002384F83E3084F83C309FE60226D7
:101B00009DE602269BE6032699E6032697E6032632
:101B100095E600BF70477047704708B590F83D30B4
:101B2000DAB2438D9BB273B1436A591C41620168BA
:101B30001B780B61438D013B9BB24385438D9BB268
:101B40000BB9292A01D0002008BD0268536823F48C
:101B50008063536021230363282380F83D30FFF71F
:101B6000DBFFF0E7704790F83D30DAB2438D9BB26F
:101B7000F3B110B503681969436A5C1C44621970BB
:101B8000438D013B9BB24385438D9BB20BB92A2AFF
:101B900001D0002010BD0268536823F480635360B5
:101BA00022230363282380F83D30FFF7DBFFF0E7B3
:101BB00000207047704708B503689A6912F0040F57
:101BC00009D000219B6913F0800F06D0028BFFF72C
:101BD000F1FF002008BD0121F4E78289F7E7704793
:101BE000704710B590F83D30DBB290F83E20D2B28D
:101BF000C46A018D09B9212B05D0212B3CD0402A84
:101C000038D0002010BD042C04D0082C02D014F5CC
:101C1000803F19D10268536823F4E063536002687F
:101C2000136843F40073136000230363202380F8D8
:101C30003D3090F83E30DBB2402B15D0002380F8C9
:101C40003E30FFF767FFDCE70268536823F4E06388
:101C5000536011230363002380F83E30202380F873
:101C60003D30FFF757FFCCE7002380F83E30FFF709
:101C7000B7FFC6E7222BC4D1438D9BB27BB190F84E
:101C80003E30DBB2402B10D0436A5A1C42620268DD
:101C90001B781361438D013B9BB24385B1E702681A
:101CA000536823F480635360ABE7036D9BB9C36C47
:101CB000012B08D0836CC3F3072302681361036D03
:101CC000013303659DE7836C0268DBB21361036D2A
:101CD0000233036595E7036D012B17D0036D022BCB
:101CE0008FD190F83D30DBB2222B17D090F83D30E9
:101CF000DBB2212B85D1436A5A1C426202681B78F1
:101D00001361438D013B9BB243857AE7836C026884
:101D1000DBB21361036D0133036572E70268136878
:101D200043F4807313606CE708B5C26A90F83D30E5
:101D3000DBB2212B01D0002008BD438D9BB203BB39
:101D4000042A04D0082A02D012F5803F24D1026868
:101D5000536823F4E06353600268136843F400732C
:101D6000136000230363202380F83D3090F83E3059
:101D7000DBB2402B20D0002380F83E30FFF7CAFEB4
:101D8000D9E7436A5A1C426202681B781361438D8B
:101D9000013B9BB24385CEE70268536823F4E063BE
:101DA000536011230363002380F83E30202380F822
:101DB0003D30FFF7AFFEBEE7002380F83E30FFF76F
:101DC0000FFFB8E7704708B590F83D30DBB2222B23
:101DD00001D0002008BD438D9BB2032B29D8023BC4
:101DE000012B31D9C36A022B47D00268136823F450
:101DF000806313600268536823F4E06353600368F0
:101E00001A69436A591C41621A70438D013B9BB2A7
:101E10004385202380F83D300023036390F83E3053
:101E2000DBB2402B2FD0002380F83E30FFF773FE4B
:101E3000CFE703681A69436A591C41621A70438DDF
:101E4000013B9BB24385C4E7C36A022B0FD00268F3
:101E5000136823F4806313600268136843F400631B
:101E600013600268536823F480635360B1E702682B
:101E7000136843F480631360F3E70268136843F464
:101E800080631360B6E7002380F83E30FFF79AFFC7
:101E90009FE708B5C26A438D9BB2032B0FD0438DD9
:101EA0009BB2022B22D003681A69436A591C416213
:101EB0001A70438D013B9BB24385002008BD042A64
:101EC00004D0082A02D012F5803F04D102681368BA
:101ED00023F48063136003681A69436A591C4162E2
:101EE0001A70438D013B9BB24385E6E7042A17D065
:101EF000082A15D012F5803F12D0022A0AD00268B3
:101F0000136823F4806313600268536823F44073FA
:101F100053600FE00268136843F480631360F3E7D3
:101F20000268536823F4407353600268136843F4F3
:101F30000073136003681A69436A591C41621A707E
:101F4000438D013B9BB2438503681A69436A591C60
:101F500041621A70438D013B9BB24385202380F878
:101F60003D300023036390F83E30DBB2402B05D0B8
:101F7000002380F83E30FFF7CEFD9EE7002380F877
:101F80003E30FFF71FFF98E77047704710B50446D3
:101F900090F83D30293B012B36D990F83D30DBB22B
:101FA000602B07D003685B6813F4006F02D1202315
:101FB00080F83D300023236384F83E3022681368A4
:101FC00023F40063136023685A6812F4006F3ED054
:101FD0005A6822F400625A60636B93F82120012A48
:101FE00018D03A4A5A63606BFEF712FE00283FD0C1
:101FF0002268136823F001031360202384F83D3026
:10200000606B436B984733E000230363282380F819
:102010003D30D3E7A36B2D4A5A63A06BFEF7F8FD62
:1020200030B323685A6912F0400F04D01A69636A0A
:10203000591C61621A702268136823F0010313604F
:10204000202384F83D30A06B436B984710E094F850
:102050003D20D2B2602A11D05A6912F0400F04D04C
:102060001A69636A591C61621A702046FFF78CFF77
:1020700094F83D30DBB2282B17D010BD202284F815
:102080003D20002222645A6912F0400F04D01A69E0
:10209000636A591C61621A702268136823F0010395
:1020A00013602046FFF771FFE2E7236C13F0040F83
:1020B000E3D0074BE36200232363202284F83D2012
:1020C00084F83E302046FFF78AFDD6E73D2300081E
:1020D0000000FFFF10B582B090F83D30DBB2016820
:1020E0004A6822F4E0624A60002201920268516963
:1020F0000191116841F001011160019A01680A68BB
:1021000022F480620A6001684A6812F4006F14D0F9
:1021100090F83D20D2B2222A0AD090F83D20D2B2C7
:102120002A2A05D0426B1268526892B2428504E0B6
:10213000826B1268526892B24285428D92B2F2B1BD
:102140004A6912F0040F08D00969426A541C4462BB
:102150001170428D013A92B242850268516911F0C4
:10216000400F08D01169426A541C44621170428DBC
:10217000013A92B24285026C42F004020264026C9F
:10218000A2B9282B15D02A2B13D0292B11D0026BE2
:10219000222A01D0222B17D100230363202280F8AA
:1021A0003D2080F83E30FFF7DDFC0DE0FFF7EEFE4E
:1021B0000AE0074BC36200230363202280F83D201E
:1021C00080F83E30FFF70BFD002002B010BD00BFCD
:1021D0000000FFFFF8B5054603689F695C695E680B
:1021E00090F83E30DBB2102B25D0402B23D04C4B47
:1021F000234013B116F4007F6ED14A4B234013B134
:1022000016F4007F6BD1484B3B40002B6FD0474BFF
:10221000234033B116F4806F03D0454B2340002B8D
:1022200061D0434B234053B316F4007F27D0284698
:10223000FEF766FF23E014F0011F02D016F4007FC2
:102240001ED13C4B234013B116F4007F1CD1344BFC
:10225000234013B116F4007F1AD1334B3B401BB31C
:10226000324B23402BB116F4806F02D0304B234009
:1022700093B12F4B234013B116F4007F10D1F8BD5A
:102280002846FEF705FEE8E72846FEF746FEE4E7A7
:102290002846FEF748FEE0E72846FFF7A2FCEEE7F7
:1022A0002846FFF741FDEAE7234B23402BB116F404
:1022B000806F02D01E4B234053B11D4B2340002B97
:1022C000DDD016F4007FDAD02846FFF7E2FDD6E72E
:1022D0002846FFF778FDD2E7FFF76DFCCFE72846E9
:1022E000FFF7F8FECBE72846FFF717FCC7E7124BCE
:1022F00023402BB116F4806F02D00D4B234053B115
:102300000B4B2340002BBAD016F4007FB7D02846E1
:10231000FEF705FFB3E72846FFF725FCAFE700BF50
:102320000200010010000100040010008000010004
:1023300004000100080001004000010008B5406AE7
:102340000268136823F48063136000234385426BA3
:102350005363826B536390F83D30DBB2602B0DD03A
:10236000202380F83D30002380F83E300268136857
:1023700023F001031360FFF707FE08BD202380F858
:102380003D30002380F83E3003640268136823F078
:1023900001031360FFF7F9FDEFE7000082B0084B7F
:1023A0001B68084AA2FB03235B0A00FB03F00190B1
:1023B00000BF019B5A1E0192002BF9D102B0704759
:1023C00008000020D34D621070B582B00446036847
:1023D00013F0010F2CD0AB4B5B6803F00C03042B04
:1023E0001DD0A84B5B6803F00C03082B12D0636868
:1023F000B3F5803F41D0002B55D103F1804303F565
:1024000004331A6822F480321A601A6822F4802297
:102410001A6037E09B4B5B6813F4803FE7D0994B21
:102420001B6813F4003F03D06368002B00F0AE81FB
:10243000236813F0020F76D0924B5B6813F00C0FF9
:102440005FD0904B5B6803F00C03082B54D02369DA
:10245000002B00F08A808C4B01221A60FEF756FB9D
:102460000546884B1B6813F0020F75D1FEF74EFB33
:10247000401B0228F5D903208BE1824A136843F4FC
:1024800080331360636843B3FEF740FB05467D4B22
:102490001B6813F4003FCBD1FEF738FB401B6428C8
:1024A000F5D9032075E1B3F5A02F09D0754B1A6853
:1024B00022F480321A601A6822F480221A60E1E75E
:1024C00003F18043A3F53C331A6842F480221A607A
:1024D0001A6842F480321A60D4E7FEF717FB05460B
:1024E000684B1B6813F4003FA2D0FEF70FFB401BA4
:1024F0006428F5D903204CE1624B5B6813F4803FFC
:10250000A5D1604B1B6813F0020F04D02369012B87
:1025100001D001203DE15B4A136823F0F8036169B3
:1025200043EAC1031360236813F0080F32D0A36994
:10253000002B5BD0554B01221A60FEF7E7FA0546E7
:10254000504B5B6A13F0020F21D1FEF7DFFA401BFC
:102550000228F5D903201CE14A4A136823F0F80346
:10256000616943EAC1031360DDE7474B00221A604B
:10257000FEF7CCFA0546434B1B6813F0020FD2D08E
:10258000FEF7C4FA401B0228F5D9032001E101201F
:10259000FFF704FF236813F0040F00F09780394B16
:1025A000DB6913F0805F33D1364BDA6942F0805239
:1025B000DA61DB6903F080530193019B0125344B01
:1025C0001B6813F4807F25D0E368012B36D0002BE5
:1025D0004CD103F1804303F504331A6A22F001025F
:1025E0001A621A6A22F004021A622CE0274B0022B7
:1025F0001A60FEF78BFA0546224B5B6A13F0020F56
:10260000C8D0FEF783FA401B0228F5D90320C0E0AA
:102610000025D4E71E4A136843F480731360FEF765
:1026200075FA06461A4B1B6813F4807FCCD1FEF76F
:102630006DFA801B6428F5D90320AAE0114A136AB9
:1026400043F001031362E36873B3FEF75FFA0646D3
:102650000C4B1B6A13F0020F37D1FEF757FA801BA1
:1026600041F288339842F3D9032092E0052B11D030
:10267000044B1A6A22F001021A621A6A22F004025A
:102680001A62E0E700100240000042428004424229
:1026900000700040414B1A6A42F004021A621A6A42
:1026A00042F001021A62CEE7FEF730FA06463B4BD3
:1026B0001B6A13F0020F08D0FEF728FA801B41F2C4
:1026C00088339842F3D9032063E0E5B9E369002B2E
:1026D0005ED0324A526802F00C02082A5BD0022B0C
:1026E00017D02F4B00221A60FEF710FA04462B4B2E
:1026F0001B6813F0007F47D0FEF708FA001B022882
:10270000F5D9032045E0254AD36923F08053D361EE
:10271000DCE7234B00221A60FEF7F8F905461F4B51
:102720001B6813F0007F06D0FEF7F0F9401B02286B
:10273000F5D903202DE0236AB3F5803F1AD017495D
:102740004B6823F47413226A606A024313434B609C
:10275000134B01221A60FEF7D9F904460F4B1B6890
:1027600013F0007F0ED1FEF7D1F9001B0228F5D936
:1027700003200EE0094A536823F40033A1680B4399
:102780005360DCE7002004E0002002E0012000E0CC
:10279000002002B070BD0120FBE700BF0010024026
:1027A0006000424210B487B0164C94E80F000DF15F
:1027B000180C0CE90F00238AADF80430124B5B684B
:1027C00003F00C02082A1AD1C3F38342624412F8C0
:1027D000102C13F4803F05D10C4800FB02F007B029
:1027E00010BC7047084B5B68C3F34043634413F865
:1027F000143C074800FB02F0B0FBF3F0EFE704489D
:10280000EDE700BFC04900080010024000093D008C
:1028100000127A00624B1B6803F007038B420CD254
:102820005F4A136823F007030B431360136803F038
:1028300007038B4201D00120704770B5036813F085
:10284000020F17D013F0040F04D0564A536843F414
:10285000E0635360036813F0080F04D0514A5368D3
:1028600043F4605353604F4A536823F0F003846885
:10287000234353600D460446036813F0010F52D002
:102880004368012B23D0022B28D0464A126812F04D
:10289000020F00F0828043494A6822F0030213438A
:1028A0004B60FEF733F906466368012B1DD0022BFF
:1028B0002AD03C4B5B6813F00C0F34D0FEF726F99E
:1028C000801B41F288339842F3D9032064E0354AF3
:1028D000126812F4003FDED101205DE0314A126837
:1028E00012F0007FD7D1012056E02E4B5B6803F039
:1028F0000C03042B17D0FEF709F9801B41F2883333
:102900009842F2D9032047E0264B5B6803F00C03A2
:10291000082B08D0FEF7FAF8801B41F28833984262
:10292000F2D9032038E01E4B1B6803F00703AB42CB
:102930000CD91B4A136823F007032B431360136859
:1029400003F00703AB4201D0012025E0236813F018
:10295000040F06D0134A536823F4E063E1680B4385
:102960005360236813F0080F07D00E4A536823F40E
:102970006053216943EAC1035360FFF713FF094B1A
:102980005B68C3F30313084AD35CD840074B186055
:102990000020FEF779F8002070BD0120FCE700BFA1
:1029A0000020024000100240D44900080800002026
:1029B000014B1868704700BF0800002008B5FFF7FA
:1029C000F7FF044B5B68C3F30223034AD35CD84090
:1029D00008BD00BF00100240E449000830B589B0CE
:1029E000002404940594069407941D4B9A6942F0C0
:1029F00010029A619A6902F010020092009A9A6994
:102A000042F020029A619A6902F020020192019A32
:102A10009A6942F004029A619A6902F004020292F1
:102A2000029A9A6942F008029A619B6903F00803CE
:102A30000393039B0B4D22464FF400512846FEF7AB
:102A40001DFA4FF4005304930123059306940223C7
:102A5000079304A92846FEF727F909B030BD00BF47
:102A6000001002400010014008B50948094B0360FE
:102A7000094B436000238360C3604FF480420261CE
:102A800043618361C3610362FEF754FD08BD00BF6B
:102A90000802002000540040801A060030B591B0B2
:102AA0000024089409940B940C94019402940394C8
:102AB00004940594012206924FF4803307930A92FE
:102AC00002250D950E934FF4E0130F9306A8FFF720
:102AD0007BFC0F230193029503944FF480630493CE
:102AE0000594294601A8FFF795FE11B030BD0000FE
:102AF00000B587B0FDF7ECFFFFF7D0FFFFF76EFFE3
:102B0000FFF7B2FF00238DF80C308DF80D30012354
:102B10008DF80E3002238DF80F30039A094904A86E
:102B200000F0B9F804A800F011F801A904A800F019
:102B3000F5F84FF400510448FEF7A6F96420FDF7BC
:102B4000EBFFF2E7080200200010014000B585B05D
:102B50006B238DF80C3000238DF80D30017900685F
:102B60004FF47A730093022303AAFEF797FD18B976
:102B7000002005B05DF804FB0120FAE700B585B040
:102B800019238DF80C308DF80D10017900684FF481
:102B90007A730093022303AAFEF780FD18B9002080
:102BA00005B05DF804FB0120FAE730B585B00446B6
:102BB0000D4604AA1C2302F8013D01794FF47A73F3
:102BC000009301230068FEF769FD10B1012005B0F4
:102BD00030BD21794FF47A73009301230DF10E0279
:102BE0002068FEF71DFE08B10120F0E79DF80E10E9
:102BF00021F0180149B241EAC501C9B28DF80E10A1
:102C00001C238DF80C308DF80D10217920684FF4BD
:102C10007A730093022303AAFEF740FD08B900204F
:102C2000D5E70120D3E730B585B004460D4604AAA8
:102C30001B2302F8013D01794FF47A7300930123BD
:102C40000068FEF72BFD10B1012005B030BD2179E1
:102C50004FF47A73009301230DF10E022068FEF702
:102C6000DFFD08B10120F0E79DF80E3023F01803D6
:102C70005BB243EAC50504AA02F8025D2179206827
:102C80004FF47A7300930123FEF708FD08B9002082
:102C9000DBE70120D9E710B586B00392B8B304464C
:102CA000B9B3084621609DF80C1041F0D0012171A4
:102CB00006AA752302F8023D4FF47A7300930123AC
:102CC000FEF7ECFC08B1012024E0217920684FF4E4
:102CD0007A73009301230DF11702FEF7A1FDD8B915
:102CE0009DF81730682B01D0032013E09DF80D10DC
:102CF0002046FFF743FF9DF80E102046FFF755FFD3
:102D00009DF80F102046FFF78EFF002002E0012003
:102D100000E0012006B010BD0120FBE730B585B012
:102D200004460D4604AA3B2302F8013D01794FF405
:102D30007A73009301230068FEF7B0FC10B1012004
:102D400005B030BD217920684FF47A7300930623D3
:102D500002AAFEF765FDA8B99DF808209DF8093084
:102D600043EA02232B809DF80A209DF80B3043EAAA
:102D700002236B809DF80C209DF80D3043EA02235E
:102D8000AB80DDE70120DBE782B00E4B9A6942F0B1
:102D900001029A619A6902F001020092009ADA69CE
:102DA00042F08052DA61DB6903F080530193019BAA
:102DB000054A536823F0E06343F00073536002B0A8
:102DC000704700BF001002400000014010B586B0FF
:102DD000002302930393049305930268154B9A42D0
:102DE00001D006B010BD144CA36943F00803A361E1
:102DF000A36903F008030093009BC02302931223EE
:102E000003930323059302A90C48FDF74DFFE369E3
:102E100043F40013E361E36903F400130193019B9E
:102E2000002211461F20FDF79DFE1F20FDF7CEFE5C
:102E3000D7E700BF0054004000100240000C0140E2
:102E40007047FEE7FEE7FEE7FEE770477047704712
:102E500008B5FDF74FFE08BD08B50248FFF7BAF9FF
:102E600008BD00BF080200200F4B1A6842F00102A3
:102E70001A6059680D4A0A405A601A6822F0847232
:102E800022F480321A601A6822F480221A605A688A
:102E900022F4FE025A604FF41F029A60044B4FF076
:102EA00000629A60704700BF001002400000FFF807
:102EB00000ED00E0002103E00B4B5B584350043170
:102EC0000A480B4B42189A42F6D30A4A02E0002302
:102ED00042F8043B084B9A42F9D3FFF7C5FF00F0D4
:102EE0000FF8FFF705FE7047204C00080000002097
:102EF000DC010020DC01002060020020FEE7000071
:102F000070B500250C4E0D4CA41BA410A54209D190
:102F100001F048FD00250A4E0A4CA41BA410A5424E
:102F200005D170BD56F8253098470135EEE756F8C3
:102F3000253098470135F2E7184C0008184C000876
:102F4000184C00081C4C000803460244934200D170
:102F5000704703F8011BF9E7002B2DE9F0471E46E7
:102F6000BBBF03F100431E4600232D2388B0149FEE
:102F7000DDE9121A27F02007462F1446109D0B702A
:102F800004D0452F00D10135022300E0032307AA16
:102F9000049206AACDE902A2CDE9003522463346C5
:102FA00000F0A6FB472F804602D1119BDB0726D5F8
:102FB000462F08EB050911D198F80030302B0AD1C3
:102FC0000022002320463146FDF7EEFC18B9C5F17A
:102FD0000105CAF80050DAF80030994400220023B5
:102FE00020463146FDF7E0FC38B93022079B4B45BF
:102FF00005D2591C07911A70F8E7CDF81C9040468D
:10300000079B159AA3EB0803136008B0BDE8F0878F
:10301000F7B50029B4BF2D232B230446B8BF49427E
:10302000092904F8022B437021DD0DF107031F4627
:103030000A2691FBF6F506FB1511092D01F1300169
:1030400003F8011C03F1FF32294609DC3031023B51
:1030500002F8011CBB42224604D3101A03B0F0BD93
:103060001346E6E713F8012B04F8012BF2E73023AF
:1030700019448370021DC170EFE700002DE9F04F85
:1030800091B00C461A9F93461E46054601F0E4F89F
:10309000036818460993FDF75BF800230E933B681D
:1030A0000A90073323F0070303F1080294F818800D
:1030B000D4F800A03A60D3E90023C4E91223D4E98C
:1030C000127929F000430B934FF0FF32A64B38469C
:1030D0000B99FDF79BFC68BB4FF0FF32A24B3846C3
:1030E0000B99FDF775FC28BB0022002338464946A2
:1030F000FDF764FC10B12D2384F843309B4F9C4BAB
:10310000B8F1470F98BF1F4603234FF00009236112
:103110002AF00403236000965B460FAA2146284646
:1031200000F0E2F9013040F090804FF0FF3011B034
:10313000BDE8F08F3A464B4638464946FDF766FCF7
:1031400010B18C4F8C4BDBE763684AF48062591CEA
:103150000DA80EA940D1062363604FF0000C0DF1BD
:103160003303CDE9012363682260CDE903080093AE
:103170003A464B46CDE9051C2846FFF7EDFE08F020
:10318000DF03472B074609D10D9BD81C02DB626881
:10319000934247DDA8F102085FFA88F8B8F1650F9D
:1031A0000D9924D80139424604F150000D91FFF7E2
:1031B0002FFF0E9A81461318012A236102DC226830
:1031C000D10701D5013323619DF83330002BA2D004
:1031D0002D2384F843309EE7B8F1670F00F06E812D
:1031E000B8F1470FB9D1002BB7D10123B4E7B8F13B
:1031F000660F19D1002963680CDD216113B92268BB
:10320000D20702D501330B4423610D9B4FF0000917
:10321000A365D9E713B92268D00701D50233F3E7D4
:103220000123F1E74FF06708DDE90D32934205DB3A
:1032300022682361D107E8D50133E5E7002BCCBF35
:103240000123C3F102031344DEE723685A0507D4C0
:1032500023693A4659462846B047013029D164E7E8
:10326000B8F1650F40F2D780D4E9120100220023A3
:10327000FDF79AFB88B30123404A59462846B047D8
:1032800001303FF452AFDDE90D239A4202DB23689F
:10329000D8070ED5DDE9092359462846B047013045
:1032A0003FF443AF002704F11A080E9B013BBB42D9
:1032B00009DC23689F0700F1FD80E0680F9B9842BE
:1032C000B8BF184633E70123424659462846B0475F
:1032D00001303FF42AAF0137E7E70D9B002B2BDCD1
:1032E0000123264A59462846B04701303FF41DAF16
:1032F0000D9B23B90E9B13B92368D907D9D5DDE9F6
:10330000092359462846B04701303FF40EAF4FF02D
:10331000000804F11A090D9B5B42434501DC0E9B3A
:1033200097E701234A4659462846B04701303FF403
:10333000FCAE08F10108EEE70E9AA36D9A42A8BF11
:103340001A46002A904607DD134659463A46284653
:10335000B04701303FF4E9AE04F11A034FF0000A20
:1033600028EAE8780B9315E0FFFFEF7FF0490008AB
:10337000EC490008F8490008F4490008FC49000835
:1033800001230B9A59462846B04701303FF4CDAE91
:103390000AF1010AD4F85890A9EB08035345EFDC71
:1033A000DDE90D239A424F4414DB2368DA0711D478
:1033B0000E9B0D99A3EB0902A3EB01099145A8BF50
:1033C0009146B9F1000F0DDC002729EAE97904F1F3
:1033D0001A0818E0DDE9092359462846B0470130AC
:1033E000E6D1A2E64B463A4659462846B047013058
:1033F000EAD19AE60123424659462846B0470130B1
:103400003FF493AE0137DDE90D239B1AA3EB0903CB
:10341000BB42EFDC4DE70E9A012A01DCDB0738D511
:1034200001233A4659462846B04701303FF47DAE65
:10343000DDE9092359462846B047013007F1010765
:103440003FF473AED4E912010E9B002203F1FF3862
:103450000023FDF7A9FAC0B943463A465946284623
:10346000B04701300DD160E6012342465946284657
:10347000B04701303FF459AE01370E9B013BBB42D0
:10348000F2DC4B4604F15002E4E6002704F11A088E
:10349000F3E70123E1E70123424659462846B047B6
:1034A00001303FF442AE0137E3680F9A9B1ABB42EA
:1034B000F1DC02E7002704F11908F5E7002B3FF4DF
:1034C00094AE4FF0000CCDE9051C0DF133012260E4
:1034D000CDE90308CDE9012100933A464B46284641
:1034E000FFF73AFD07464FE62DE9F04791461F46A4
:1034F0008A680B6906469342B8BF1346C9F8003084
:1035000091F843200C46DDF8208012B10133C9F850
:1035100000302368990642BFD9F800300233C9F859
:103520000030256815F0060507D104F1190AE36893
:10353000D9F800209B1AAB4229DC94F8433022686A
:10354000003318BF012392062ED404F143023946FA
:103550003046C047013021D02368E56803F00603F8
:10356000042B18BF0025D9F800204FF0000908BF30
:10357000AD1AA368226908BF25EAE5759342C4BF66
:103580009B1AED181A344D451AD1002008E001238A
:10359000524639463046C047013003D14FF0FF3024
:1035A000BDE8F0870135C2E73020E11881F843001B
:1035B0005A1C94F845102244023382F84310C4E7A1
:1035C0000123224639463046C0470130E6D009F192
:1035D0000109D8E72DE9F74F03690C698046A3423A
:1035E000C0F28480013C01F1140700F1140657F881
:1035F000245056F824000135B0FBF5F54FEA840C51
:1036000006EB0C0307EB0C0901939DB34FF0000A86
:103610003846B646D34650F8042B93B205FB03A3B5
:10362000120C4FEA134A05FB02A29BB2ABEB030359
:10363000DEF800B04FEA124A1FFA8BFB5B441FFA18
:1036400082FBDEF800208145CBEB124202EB2342E5
:103650009BB243EA02434FEA224B4EF8043BDAD2D4
:1036600056F80C3033B9019B043B9E421A4631D3C5
:10367000C8F81040404601F025F8002826DB304607
:103680004FF0000C013557F8041BD0F800E08BB266
:10369000ACEB03031FFA8EF213440A0CC2EB1E427A
:1036A00002EB23429BB243EA0243B9454FEA224C64
:1036B00040F8043BE7D256F8242006EB84032AB9ED
:1036C000043B9E421A460BD3C8F81040284603B06C
:1036D000BDE8F08F1268043B002AC9D1013CC4E761
:1036E0001268043B002AEFD1013CEAE70020EEE734
:1036F0002DE9F04F16461F46456A95B00446DDF8A1
:103700008480CDE902673DB9102000F0B3FD60620E
:10371000C0E901550560C560636A196851B15A680E
:10372000012393404A608B60204600F0EAFD0022AE
:10373000636A1A603B1EAFBF0023012223F00043DF
:103740000393ACBFC8F80030C8F80020AE4BDDF8DA
:103750000C8033EA08031BD142F20F73209A1360E6
:10376000029B23B9C8F31300002800F04585229B73
:1037700053B9A64B21E0A64B06930833229A136057
:10378000069815B0BDE8F08FA04B06930333F5E71C
:10379000DDE902670022002330463946FDF704F9CF
:1037A000824660B10123209A1360229B002B00F017
:1037B0002085984B229A1360013B0693E0E712ABF9
:1037C000019313AB009332463B46204600F0F2FFD4
:1037D000C8F30A558346002D7DD0B046C7F31303C6
:1037E00043F07F5949F44019A5F2FF35CDF840A0C8
:1037F0000022894B40464946FCF7B6FC7CA3D3E93E
:103800000023FCF769FE7CA3D3E90023FCF7AEFCA0
:10381000064628460F46FCF7F5FD79A3D3E90023B9
:10382000FCF75AFE02460B4630463946FCF79EFC32
:1038300006460F46FDF700F9002282460023304677
:103840003946FDF7BBF848B15046FCF7DBFD324680
:103850003B46FDF7A9F808B90AF1FF3ABAF1160F8D
:103860005AD8DDE902236D4901EBCA01D1E9000113
:10387000FDF7C2F8002851D000230AF1FF3A0D935A
:10388000129B5D1B6B1E079343BF0023C5F101090B
:1038900007934FF00009BAF1000F41DB079BCDF809
:1038A00030A053440793002308931E9B092B00F27A
:1038B0008F80052BC4BF043B1E931E9BC8BF0025F1
:1038C000A3F10203D8BF0125032B00F28D80DFE8AE
:1038D00003F07B7D2F6FDDE912531D4405F232406A
:1038E000202813DDC0F14000029B08FA00F805F221
:1038F000124023FA00F048EA0000FCF773FD0123B0
:103900008046A1F1F879013D109371E7029BC0F167
:10391000200003FA00F0F0E70123B0E70D90AFE7D5
:10392000CAF1000308930023A9EB0A090C93BCE732
:10393000012309931F9B002B74DD984604930022FA
:10394000666A7260042202F11400984271686ED9AE
:10395000204600F0A2FC636A30601B68B8F10E0FCD
:10396000069300F2ED80002D00F0EA80DDE90223ED
:10397000BAF1000FCDE90E2377DD284A0AF00F03D4
:103980004FEA2A1602EBC303F006D3E90023CDE980
:103990000A2368D5DDE90E01214B0325D3E908236D
:1039A000FCF7C4FECDE9020106F00F061C4F4FE004
:1039B000012309931F9B534403F1010804934346D9
:1039C000012BB8BF0123BAE70023B2E70023F0E7D9
:1039D0000125002309951E934FF0FF330022049325
:1039E000984612231F92AAE701230993F4E700BF28
:1039F00061436F63A787D23FB3C8608B288AC63FF5
:103A0000FB799F501344D33F0000F07F074A000822
:103A1000FE490008FD4900080000F83F384A000848
:103A2000104A00080123049398461A46DAE7013148
:103A30007160520087E7F10708D5DDE90A01D7E98F
:103A40000023FCF749FDCDE90A010135761008375E
:103A5000002EF0D1DDE90A23DDE90201FCF766FE64
:103A6000CDE902011BE00225A0E700F0A480DDE91A
:103A70000E01CAF10006A04B06F00F0203EBC203D1
:103A8000D3E90023FCF728FD02250023CDE902013C
:103A90009A4F3611002E40F08380002BE0D10D9B11
:103AA000002B00F08A80DDE90223CDE90A23DDE95D
:103AB0000A010022924BFCF781FF00287DD0B8F16B
:103AC000000F7AD0049B002B36DDDDE90A010022CD
:103AD0008C4BFCF701FDCDE90201049E0AF1FF3792
:103AE00001352846FCF78EFCDDE90223FCF7F4FCE7
:103AF0000022854BFCF73AFBA1F15075CDE90A0194
:103B00000B95002E5CD1DDE9020100227F4BFCF712
:103B10002BFB0A9A2B46CDE90201FCF76DFF00282A
:103B200040F08182DDE902010A9A05F10043FCF7C9
:103B300045FF002840F07582DDE90E23CDE9022320
:103B4000139B002BC0F24B81BAF10E0F00F347819B
:103B5000694B03EBCA03D3E90023CDE904231F9B80
:103B6000002B80F2D780B8F1000F00F3D38040F033
:103B70005782DDE904010022644BFCF7ADFCDDE96E
:103B80000223FCF72FFF46464746002840F02D82CF
:103B9000069B069A5D1C31230AF1010A137028E284
:103BA000F20705D5D7E90023FCF796FC0123013580
:103BB000761008376EE7022571E75746464690E7CC
:103BC0004D4B03EBC60353E90201099B002B48D080
:103BD00002460B4600204E49FCF7A8FDDDE90A230A
:103BE000FCF7C2FACDE90A01069DDDE90201FCF706
:103BF00023FF1190FCF706FC02460B46DDE90201AB
:103C0000FCF7B2FA119BCDE90201303305F8013B14
:103C1000DDE90A23FCF7D2FE002863D1DDE90223A7
:103C200000203749FCF7A0FADDE90A23FCF7C6FEBD
:103C3000002840F0B580069BEB1A9E427FF77CAFD0
:103C4000DDE90A0100222F4BFCF746FC0022CDE9FA
:103C50000A01DDE902012B4BFCF73EFCCDE9020134
:103C6000C3E7DDE90A23FCF737FC069BCDE90A012F
:103C70009D191E46DDE90201FCF7DEFE1190FCF7FE
:103C8000C1FB02460B46DDE90201FCF76DFA119B10
:103C9000CDE90201303306F8013BAE424FF000029D
:103CA00024D1DDE90A011A4BFCF760FA02460B4603
:103CB000DDE90201FCF7A0FE002871D1DDE90A234D
:103CC00000201349FCF750FA02460B46DDE90201D9
:103CD000FCF774FE00283FF42FAF15F8013C6A1E74
:103CE000302B01D0BA464AE01546F6E7054BFCF703
:103CF000F3FBCDE90201BDE7384A0008104A00088D
:103D00000000F03F0000244000001C400000144070
:103D10000000E03F069DDDE90267DDE9042330464F
:103D20003946FCF703FDFCF787FE8146FCF76AFB8A
:103D3000DDE90423FCF7D0FB02460B46304639464A
:103D4000FCF712FA09F1300605F8016B069E0246EF
:103D5000AE1BB0450B4635D1FCF708FADDE904236C
:103D600006460F46FCF748FEC8B9DDE90423304695
:103D70003946FCF719FE10B119F0010F0FD1594661
:103D8000204600F0BEFA0023209A2B700AF10103AE
:103D90001360229B002B3FF4F3AC1D60F0E4574608
:103DA00015F8012C6B1E392A06D1069A9A4207D1C2
:103DB00030231370134601371A7801321A7091E7D5
:103DC0001D46EDE70022994BFCF786FB00220023FD
:103DD00006460F46FCF7E8FD00289ED0CFE7099A7B
:103DE000002A00F088801E9A012A6DDC109A002AB1
:103DF00066D003F233434D46089E079A01211A44C8
:103E000020469944079200F01CFB0746002D0BDD6D
:103E1000079B002B08DDAB42A8BF2B46079AA9EBF6
:103E20000309ED1AD31A0793089BEBB1099B002BEA
:103E300065D08EB139463246204600F0A1FB5A4685
:103E400001460746204600F005FB59460A902046E9
:103E500000F057FA0A9B9B46089B9A1B04D05946D0
:103E6000204600F08DFB83460121204600F0E9FA50
:103E70000C9B0646002B00F0C6811A4601462046E0
:103E800000F07EFB1E9B0646012B3EDC029B002BB6
:103E900037D1039BC3F31303002B34D1039B23F0CF
:103EA00000431B0D1B052BB1079B09F101090133D1
:103EB0000793012308930C9B002B28D101202EE0AF
:103EC000129BC3F1360396E7089B08F1FF36B34215
:103ED000B7BF089B9E1BF21A0C9BBFBF08969B188E
:103EE0000C930026B8F1000FB9BFA9EB0805002319
:103EF0004D46434681E7089E4D46099F86E7089A4E
:103F0000ADE70023D6E7029BD4E70023089333698B
:103F100006EB8303186900F046FAC0F12000079B06
:103F2000184410F01F0047D0C0F12003042B3BDDE4
:103F3000079BC0F11C008144054403440793B9F179
:103F4000000F05DD59464A46204600F067FB8346D0
:103F5000079B002B05DD31461A46204600F05EFB2C
:103F600006460D9B53B33146584600F0ABFB002884
:103F700024DA002359460A22204600F0D9F9099B89
:103F80000AF1FF3A8346002B00F0448100233946B2
:103F90000A22204600F0CCF9049B0746002B4DDC9A
:103FA0001E9B022B4ADD11E0C9D0079A1C331A442C
:103FB00099441D441346C1E70346F6E7B8F1000FE4
:103FC00036DC1E9B022B33DDCDF81080049B63B9D9
:103FD00031460522204600F0ABF901460646584618
:103FE00000F070FB00283FF7D3AD1F9B069D6FEAE2
:103FF000030A4FF000093146204600F082F9002FF5
:104000003FF4BDAEB9F1000F05D0B94503D0494624
:10401000204600F076F93946204600F072F9AEE607
:1040200000263746E1E7BA463746B1E500002440AE
:10403000099BCDF81080002B00F0F380002D05DDEA
:1040400039462A46204600F0E9FA0746089B002B2D
:104050004CD07968204600F020F905463A6907F10E
:104060000C01023292000C3000F00CF901222946BA
:10407000204600F0D3FAB9460746069B0793029BF9
:1040800003F00103089331465846FFF7A3FA494667
:10409000054600F13008584600F014FB3A460290FD
:1040A0003146204600F028FBC368024603BB0146A8
:1040B0000990584600F006FB0346099A114620462F
:1040C000099300F01EF9099BA3B91E9A92B9089AA8
:1040D00082B9B8F1390F29D0029B002B01DD05F11F
:1040E0003108079B5D1C83F8008084E73846C2E7EF
:1040F0000123E3E7029A002A04DB23D11E9A0ABBBC
:10410000089AFAB9002BECDD59460122204600F04E
:1041100085FA3146834600F0D5FA002803DCE0D169
:1041200018F0010FDDD0B8F1390FD8D1079B079AED
:104130005D1C3923137015F8013C6A1E392B4DD0D4
:10414000013352E0079A002B02F1010506DDB8F1B8
:10415000390FEBD008F10108079BC4E7069B049ACE
:10416000EB1A934205F8018C21D0594600230A220C
:10417000204600F0DDF8B94583464FF000034FF0CC
:104180000A024946204605D100F0D2F8814607468A
:10419000079578E700F0CCF83946814600230A22DB
:1041A000204600F0C5F80746F2E74FF000095946EF
:1041B0000122204600F032FA3146834600F082FAAE
:1041C0000028B8DC02D118F0010FB4D115F8013C79
:1041D0006A1E302B7FF40FAF1546F7E7069B93421C
:1041E00005D13123069A0AF1010A137003E7154637
:1041F000A1E7174BFFF7E1BA229B002B7FF4BBAA84
:10420000144BFFF7DABA1E9B012B7FF73FAE0C9BD6
:10421000089353E6049B002B03DC1E9B022B3FF705
:10422000D5AE069D31465846FFF7D4F9069B00F1FE
:10423000300805F8018B049AEB1A9A42B5DD59460D
:1042400000230A22204600F073F88346EAE700BF05
:10425000FC490008FE490008044B1B68186A044B1F
:10426000002808BF1846F030704700BF0C0000203F
:1042700070000020024B0146186800F0F9BA00BF38
:104280000C00002010B5431E0A44914200D110BD1D
:1042900011F8014B03F8014FF7E770B5456A044682
:1042A0000E463DB91020FFF7E5FF6062C0E90155F9
:1042B0000560C560656AEB6883B1636ADB6853F8C3
:1042C0002600B8B9012101FA06F56A1D92002046C0
:1042D00000F0BFFA60B1C0E901650EE021220421BF
:1042E000204600F0B6FA636AE860DB68002BE4D190
:1042F000002070BD026843F826200023C0E9033384
:10430000F7E770B5446A06460D463CB91020FFF742
:10431000B1FF7062C0E901440460C4603DB1736ADA
:104320006A68DB6853F82210296043F8225070BD98
:104330002DE9F0411F4606460C4600230D6901F1A8
:10434000140CDCF80000013381B202FB0171000C97
:104350000F0C02FB007089B201EB00419D424FEA55
:1043600010474CF8041BECDCD7B1A368AB4212DC5D
:10437000616830460131FFF790FF8046226904F101
:104380000C01023292000C30FFF77CFF21463046D0
:10439000FFF7B7FF444604EB850301355F612561F4
:1043A0002046BDE8F081020C12040346B2B90304B2
:1043B000102013F07F4F04BF1B02083013F0704F22
:1043C00004BF1B01043013F0404F04BF9B000230B8
:1043D000002B06DB5B0003D5013070470020E8E7C7
:1043E000202070470368014613F007020BD0DA075C
:1043F00023D4980749BF5B089B0801200B605CBF72
:104400000B600220704798B2A8B910201B0C13F063
:10441000FF0F04BF1B0A08301A0704BF1B09043032
:104420009A0704BF9B080230DA0702D45B0806D063
:1044300001300B6070471046E9E7002070472020EC
:10444000704710B50C460121FFF727FF0122446198
:10445000026110BD2DE9F74F14460A6923698846A9
:104460009A42BEBF0B46A0461C46D8F81070D4F83E
:104470001090D8F80830D8F8041007EB0906B342BA
:10448000B8BF0131FFF709FF00F114052B460022E8
:1044900005EB860E734516D304F1140208F11401DE
:1044A00002EB890301EB87070093009B0192934283
:1044B0000CD8002E03DD5EF8043D002B5DD00661B4
:1044C00003B0BDE8F08F43F8042BE3E7B2F800B087
:1044D000BBF1000F23D08946AC464FF0000859F8D5
:1044E000044BDCF800A0A3B21FFA8AFA0BFB03A36B
:1044F0004FEA144ADCF8004043444FEA14480BFBEF
:104500000A84E24604EB13449BB243EA04434F455A
:104510004FEA14484AF8043B2BD8CCF80480019B9E
:104520000432B3F802A0BAF1000F20D08946A846A1
:104530004FF0000B2B68B9F800C0B8F802409BB2EE
:104540000AFB0C44C4465C4443EA04434CF8043B75
:1045500059F8043BB8F804B01B0C0AFB03B34F45F1
:1045600003EB14434FEA134B05D8C8F80430043565
:104570009BE7D446B3E7E046DDE7013E99E700005C
:104580002DE9F843154612F0030206460F4607D000
:10459000214C013A002354F82220FFF7C9FE0746B8
:1045A000AD1035D0746A3CB91020FFF763FE70621D
:1045B000C0E901440460C460D6F82480D8F80840FB
:1045C0004CB940F271213046FFF73BFF002304460F
:1045D000C8F8080003604FF00008EB070AD5394619
:1045E00022463046FFF736FF814639463046FFF710
:1045F00088FE4F466D100BD0206838B92246214600
:104600003046FFF727FF2060C0F800800446E4E74B
:104610003846BDE8F88300BF004B00082DE9F0479D
:104620000C460746164623694FEA621A0AEB03094D
:104630004968A36809F10105AB4232DB3846FFF750
:104640002CFE002380461A4600F1140153452BDB53
:1046500020692AEAEA7A04F1140316F01F0201EB3A
:104660008A0103EB800C25D00020C2F1200E8A467F
:104670001E68964030434AF8040B53F8040B9C45DF
:1046800020FA0EF014D8486008B109F10205013D86
:104690003846C8F810502146FFF733FE4046BDE8C3
:1046A000F08701315B00C7E741F823200133CDE7F4
:1046B0005146DCE7043953F8042B9C4541F8042F9C
:1046C000F9D8E4E703690A6930B59B1A0CD1920066
:1046D000143014318418114454F8045D51F8042D39
:1046E000954203D005D30123184630BDA042F3D331
:1046F000FAE74FF0FF33F7E72DE9F0470D4607469D
:10470000114628461446FFF7DDFF061E08D1314644
:104710003846FFF7C2FD0123C0E90436BDE8F08743
:10472000A4BF23462C4638466168A6BF1D46002616
:104730000126FFF7B2FD4FF0000EC6602B69266917
:1047400004F1140205F1140902EB860709EB830852
:1047500000F1140152F804AB59F8045B1FFA8AF314
:104760007344ACB21B1B2C0CC4EB1A4404EB234463
:104770009BB24FEA244EC84543EA0444944641F8AC
:10478000044BE7D8BC4504D351F8043D83B106611E
:10479000C4E75CF8044BA2B27244131403EB144355
:1047A00092B242EA03424FEA234E41F8042BE9E772
:1047B000013EE9E72DE9F3411C46DDE908650121E9
:1047C0009046FFF76AFDC4F31302C4F30A54074688
:1047D00034BB0192B8F1000227D002A840F8082D9E
:1047E000FFF700FE0099F0B1019AC0F1200302FA30
:1047F00003F30B43C2407B610192019B002B14BF6A
:1048000002210121BB613961C4B1A4F233440444E3
:104810003460C0F135002860384602B0BDE8F08150
:1048200042F48012D5E77961E7E701A8FFF7DAFDE6
:104830000121019B39617B612030E5E7A0F2324024
:1048400007EB810330601869FFF7ADFDC0EB411045
:10485000E1E738B502FB01F4214600F009F805460E
:1048600018B122460021FEF76FFB284638BD000034
:1048700070B5CD1C25F0030508350C2D38BF0C256F
:10488000002D064601DBA94203D90C23336000202A
:1048900070BD00F069F8214A1468214691B9204C96
:1048A00023681BB9304600F03DF8206029463046A9
:1048B00000F038F8431C24D10C233046336000F05C
:1048C00054F8E4E70B685B1B18D40B2B0FD90B6073
:1048D000CC18CD50304600F048F804F10B00231DF1
:1048E00020F00700C31AD3D05A42E250D0E74B68F9
:1048F0008C4216BF636013600C46EBE70C464968B8
:10490000CCE7C41C24F00304A04205D0211A304691
:1049100000F008F80130CFD02560DBE7F801002077
:10492000FC01002038B50023054C054608462360ED
:1049300000F02AF8431C02D1236803B12B6038BD74
:104940005C02002082B001B901A942B14BB11378D9
:104950000B601278101C18BF012002B0704710467F
:10496000FBE76FF00100F8E77047704749B1FF2A95
:104970008BBF8A230A700360012088BF4FF0FF308D
:104980007047084670470000044A05491368002B29
:1049900008BF0B46184410601846704700020020FC
:1049A00060020020F8B500BFF8BC08BC9E46704706
:0C49B000F8B500BFF8BC08BC9E4670477C
:1049C00002030405060708090A0B0C0D0E0F101050
:1049D00001020000000000000000000001020304CA
:1049E000060708090000000001020304494E4600C2
:1049F000696E66004E414E006E616E003000496E79
:104A000066696E697479004E614E00000000000016
:104A10000080E03779C34143176E05B5B5B89346BA
:104A2000F5F93FE9034F384D321D30F94877825A86
:104A30003CBF737FDD4F1575000000000000F03FA4
:104A40000000000000002440000000000000594069
:104A50000000000000408F40000000000088C340BC
:104A600000000000006AF8400000000080842E4131
:104A700000000000D01263410000000084D797417D
:104A80000000000065CDCD41000000205FA0024283
:104A9000000000E876483742000000A2941A6D42F8
:104AA000000040E59C30A2420000901EC4BCD642EB
:104AB00000003426F56B0C430080E03779C3414396
:104AC00000A0D8855734764300C84E676DC1AB430C
:104AD000003D9160E458E143408CB5781DAF15442A
:104AE00050EFE2D6E41A4B4492D54D06CFF0804405
:104AF000F64AE1C7022DB544B49DD9794378EA441A
:104B000005000000190000007D0000004300504F28
:104B1000534958002E000020202020202020202053
:104B2000282828282820202020202020202020205D
:104B3000202020202020208810101010101010108D
:104B400010101010101010040404040404040404D1
:104B50000410101010101010414141414141010159
:104B60000101010101010101010101010101010135
:104B70000101101010101010424242424242020243
:104B80000202020202020202020202020202020205
:104B900002021010101020000000000000000000B1
:104BA0000000000000000000000000000000000005
:104BB00000000000000000000000000000000000F5
:104BC00000000000000000000000000000000000E5
:104BD00000000000000000000000000000000000D5
:104BE00000000000000000000000000000000000C5
:104BF00000000000000000000000000000000000B5
:104C000000000000000000000000000000000000A4
:084C100000000000000000009C
:044C1800350100085A
:044C1C00110100087A
:104C2000010000001000000000A24A041000002053
:104C30000000000000000000000000000000000074
:104C40000000000000000000000000000000000064
:104C50000000000000000000000000000000000054
:104C60000000000000000000000000000000000044
:104C70000000000000000000000000000000000034
:104C80000000000000000000000000000000000024
:104C900043000000000000000000000000000000D1
:104CA0000000000000000000000000000000000004
:104CB00043000000000000000000000000000000B1
:104CC00000000000000000000000000000000000E4
:104CD0004300000000000000000000000000000091
:104CE00000000000000000000000000000000000C4
:104CF0004300000000000000000000000000000071
:104D000000000000000000000000000000000000A3
:104D10004300000000000000000000000000000050
:104D20000000000000000000000000000000000083
:104D30004300000000000000000000000000000030
:104D40000000000000000000000000000000000063
:104D50004300000000000000000000000000000010
:104D60000000000000000000000000000000000043
:104D70006D4900084549000800000000164B000876
:104D8000144B0008154B0008154B0008154B000884
:104D9000154B0008154B0008154B0008154B000873
:104DA000154B0008154B0008FFFFFFFFFFFFFFFF3B
:104DB000FFFFFFFFFFFF000001004153434949008F
:104DC00000000000000000000000000000000000E3
:104DD000000000000000000000004153434949006A
:104DE00000000000000000000000000000000000C3
:0C4DF000000000000000000000000000B7
:0400000508002EB50C
:00000001FF
